:1000000059C00000E2C4000007C500007BC000002A
:1000100079C0000077C0000075C000000C94BD0AD4
:1000200071C000006FC000006DC000006BC0000018
:1000300069C000000C94230B65C0000063C0000081
:1000400012C500005FC0000010C7000040C70000DC
:1000500059C0000057C0000055C0000053C0000048
:1000600051C000004FC00000000000080002010065
:100070000003040700000000000000000102040863
:100080001020408001020408102001020408102002
:10009000040404040404040402020202020203032E
:1000A0000303030300000000250028002B000200CA
:1000B0008C07F80711241FBECFEFD8E0DEBFCDBFFD
:1000C00011E0A0E0B1E0E2E4FCE102C005900D9295
:1000D000AA36B107D9F722E0AAE6B1E001C01D9225
:1000E000A437B207E1F710E0CAE5D0E004C02197D9
:1000F000FE010E94190EC835D107C9F70E94860B70
:100100000C941F0E7DCF6F927F928F929F92AF9231
:10011000BF92CF92DF92EF92FF920F931F93CF93F4
:10012000DF931F92CDB7DEB7F02E9C2D30E0283044
:10013000310511F424E030E0992339F0913041F099
:10014000923049F002E010E008C00AE010E005C07B
:1001500000E110E002C008E010E0811114C1F110CC
:100160001AC0249FC001259F900D349F900D11242B
:10017000AC0183E791E00F90DF91CF911F910F9138
:10018000FF90EF90DF90CF90BF90AF909F908F90B7
:100190007F906F9038C7C4016A01B72E962EBC01BC
:1001A00083E791E0E9826FD7398131111BC0692C57
:1001B0007B2CC60CD71C6C147D0409F4E4C081E0D0
:1001C000A801F3016081F81205C083E791E00E9465
:1001D000130904C083E791E00E941909FFEF6F1A29
:1001E0007F0AE9CF3130E9F4692C7B2CC114D104AA
:1001F00009F4C9C081E0F30160817181A801F8129E
:1002000005C083E791E00E942E0904C083E791E0D6
:100210000E943309F1E0CF1AD10882E0680E711C08
:10022000E5CF323021F5692C7B2CC114D10409F4BF
:10023000AAC0E1E0FE120AC0F3014081518162814F
:100240007381980183E791E0E2D70AC0F30140810E
:10025000518162817381980183E791E00E9447098F
:10026000F1E0CF1AD10884E0680E711CDECF333084
:1002700011F5692C7B2CC60CD71C6C147D0409F479
:1002800082C0E1E0FE120AC0F3016081062E000C7C
:10029000770BA80183E791E08FD709C0F301608154
:1002A000062E000C770BA80183E791E08BD7FFEFB8
:1002B0006F1A7F0AE2CF3430D9F4692C7B2CC11439
:1002C000D10409F460C081E0F30160817181A8016B
:1002D000F81204C083E791E06FD703C083E791E091
:1002E00071D7F1E0CF1AD10882E0680E711CE7CF18
:1002F000353019F5692C7B2CC114D10409F443C0A5
:10030000E1E0FE120AC0F3014081518162817381F4
:10031000980183E791E009D709C0F3014081518139
:1003200062817381980183E791E061D7F1E0CF1A90
:10033000D10884E0680E711CDFCF363021F5092D1D
:100340001B2DB12CC114D104F1F0E1E0FE120BC061
:10035000F8014081518162817381950183E791E0C9
:100360000E94250A0AC0F80140815181628173818F
:10037000950183E791E00E94260AF1E0CF1AD108A7
:100380000C5F1F4FDFCF0F90DF91CF911F910F9127
:10039000FF90EF90DF90CF90BF90AF909F908F90A5
:1003A0007F906F900895AB01BC0183E791E00C94BE
:1003B000640AAF92BF92CF92DF92EF92FF920F93B7
:1003C0001F93CF93DF9300D0CDB7DEB77B015901E8
:1003D000CDB6DEB69B01220F331F6DB77EB7621B11
:1003E000730B0FB6F8947EBF0FBE6DBF0DB71EB76F
:1003F0000F5F1F4FE82FF0E0EE0FFF1FE45FFE4F8F
:100400000190F081E02DB701C80149835A83099515
:10041000F8014981A42F5A81B52FE00EF11EEE1587
:10042000FF0519F081918D93FACF81E0F50180836A
:100430000FB6F894DEBE0FBECDBE0F900F90DF91C9
:10044000CF911F910F91FF90EF90DF90CF90BF90D1
:10045000AF900895CF92DF92EF92FF920F931F9388
:10046000CF93DF93CDB7DEB7C354D1090FB6F8945D
:10047000DEBF0FBECDBFF82E8B01E52EC82ED12CCE
:10048000CC0CDD1CF601E65FFE4F0190F081E02D03
:1004900022962FAF229723963FAF239724964FAFF4
:1004A00024970995BC0122962FAD229723963FAD44
:1004B000239724964FAD24978017910711F45E2D52
:1004C00038C08017910728F4E42FFE2D0E0F1F1F50
:1004D00033C0C801880F991F8617970740F5F601AA
:1004E000E45FFE4FCB01B8010E94E30DCB01019701
:1004F000809FB001819F700D909F700D112401901D
:10050000F081E02DCE01019622962FAF22972396FF
:100510003FAF239724964FAF2497099522962FAD8E
:10052000229723963FAD239724964FAD24975E2DB7
:10053000B8018F2D3EDF07C0E017F10711F01192CF
:10054000FBCFF9011082CD5BDF4F0FB6F894DEBF11
:100550000FBECDBFDF91CF911F910F91FF90EF9014
:10056000DF90CF90089583E791E066C34F925F924A
:100570006F927F928F929F92AF92BF92CF92DF92B3
:10058000EF92FF920F93CF93DF93CDB7DEB76297D1
:100590000FB6F894DEBF0FBECDBF60916F027091B1
:1005A00070029E012B5F3F4FAE014F5F5F4F80E0B7
:1005B00051DF9D8180917302992309F4FAC0811162
:1005C00003C081E080937302409063025090640204
:1005D0006090650270906602409221025092220261
:1005E000609223027092240289809A80AB80BC8042
:1005F0008091670290916802A0916902B0916A02AD
:100600008A879B87AC87BD872091120130911301A7
:100610004091140150911501C501B4010E947C0D57
:100620002A853B854C855D850E94C90B20911E0162
:1006300030911F0140912001509121010E947C0DB9
:100640006E877F87888B998B20911A0130911B01CF
:1006500040911C0150911D01C501B4010E947C0D07
:10066000A30192010E94CA0B2E853F8548895989B2
:100670000E94CA0B6B017C01809136019091370179
:10068000A0913801B09139018E839F83A887B987E3
:100690009C01AD01C701B6010E94780D1816A4F0A7
:1006A00080913A0190913B01A0913C01B0913D01B4
:1006B0008E839F83A887B9879C01AD01C701B601CE
:1006C0000E942E0C87FF0DC08E819F81A885B98561
:1006D0008093250290932602A0932702B0932802CC
:1006E00008C0C0922502D0922602E0922702F09222
:1006F0002802A7019601609125027091260280913F
:100700002702909128020E94C90B20910E0130917E
:100710000F0140911001509111010E947C0D6B015D
:100720007C012091160130911701409118015091E0
:100730001901C501B4010E947C0D9B01AC01C701E8
:10074000B6010E94CA0B20912601309127014091E9
:100750002801509129010E947C0D9B01AC01C3012D
:10076000B2010E94CA0B609363027093640280938B
:1007700065029093660220912E0130912F014091E5
:100780003001509131016E857F85888999890E9459
:100790007C0D9B01AC016A857B858C859D85FAD794
:1007A00060936702709368028093690290936A0273
:1007B00014C0882391F08091210290912202A0918F
:1007C0002302B09124028093630290936402A09369
:1007D0006502B09366021092730280912502909197
:1007E0002602A0912702B091280289839A83AB83C5
:1007F000BC8360915F027091600280916102909170
:1008000062020E949A0CC62E6091570270915802A3
:100810008091590290915A020E949A0CE62E6091A2
:100820005B0270915C0280915D0290915E020E9479
:100830009A0C062F609153027091540280915502D8
:10084000909156020E949A0C262F60914F0270914F
:10085000500280915102909152022A8B0E949A0C70
:10086000862F812C912C92E0A92E2A8941E050E01C
:10087000BE016F5F7F4F47DC62960FB6F894DEBF14
:100880000FBECDBFDF91CF910F91FF90EF90DF9022
:10089000CF90BF90AF909F908F907F906F905F9020
:1008A0004F900895CF93DF9310922A02109229025D
:1008B000C1E2D2E088E0DE011D928A95E9F7EBE221
:1008C000F2E089E4DF011D928A95E9F781E090E08A
:1008D000A0E0B0E080936B0290936C02A0936D0255
:1008E000B0936E0224E030E03093720220937102E4
:1008F0003093700220936F0280839183A283B3832D
:1009000080E090E0A0E0B1E480A791A7A2A7B3A700
:1009100080E090E0A0ECB0E484A795A7A6A7B7A7D5
:10092000AEE0B1E05C964D915D916D917C915F97E9
:1009300040AF51AF62AF73AF94964D915D916D91A1
:100940007C91979744AF55AF66AF77AF54968D9132
:100950009D910D90BC91A02D8C839D83AE83BF8310
:10096000DF91CF91089580916B0290916C02A091DC
:100970006D02B0916E020197A105B10561F482E0AC
:1009800090E0A0E0B0E080936B0290936C02A093A3
:100990006D02B0936E0280912B0290912C02A09177
:1009A0002D02B0912E020197A105B10561F482E0FC
:1009B00090E0A0E0B0E080932B0290932C02A093F3
:1009C0002D02B0932E02089508951F920F920FB634
:1009D0000F9211242F933F934F935F936F937F93C5
:1009E0008F939F93AF93BF93EF93FF93E0913E015B
:1009F000F0913F010995FF91EF91BF91AF919F91C8
:100A00008F917F916F915F914F913F912F910F90B7
:100A10000FBE0F901F9018951F920F920FB60F9256
:100A200011242F933F934F935F936F937F938F93F3
:100A30009F93AF93BF93EF93FF93E0914001F091A9
:100A400041010995FF91EF91BF91AF919F918F91D6
:100A50007F916F915F914F913F912F910F900FBEBA
:100A60000F901F9018951F920F920FB60F9211249E
:100A70002F933F938F939F93AF93BF9380916B017D
:100A800090916C01A0916D01B0916E0130916A015D
:100A900023E0230F2D3720F40196A11DB11D05C0C1
:100AA00026E8230F0296A11DB11D20936A018093B1
:100AB0006B0190936C01A0936D01B0936E018091D6
:100AC0006F0190917001A0917101B0917201019636
:100AD000A11DB11D80936F0190937001A0937101CE
:100AE000B0937201BF91AF919F918F913F912F91E0
:100AF0000F900FBE0F901F9018952FB7F89460912C
:100B00006B0170916C0180916D0190916E012FBF0E
:100B10000895789484B5826084BD84B5816084BD75
:100B200085B5826085BD85B5816085BDEEE6F0E066
:100B3000808181608083E1E8F0E0108280818260C2
:100B40008083808181608083E0E8F0E08081816043
:100B50008083E1EBF0E0808184608083E0EBF0E073
:100B6000808181608083EAE7F0E080818460808317
:100B700080818260808380818160808380818068C1
:100B800080831092C1000895833081F028F4813071
:100B900099F08230A1F008958730A9F08830B9F03B
:100BA0008430D1F4809180008F7D03C080918000DB
:100BB0008F7780938000089584B58F7702C084B5C5
:100BC0008F7D84BD08958091B0008F7703C08091A0
:100BD000B0008F7D8093B00008951F93CF93DF9373
:100BE000282F30E0F901E859FF4F8491F901E458CA
:100BF000FF4FD491F901E057FF4FC491CC23C1F0CE
:100C0000162F8111C1DFEC2FF0E0EE0FFF1FEC5526
:100C1000FF4FA591B4918FB7F894111105C09C9125
:100C2000ED2FE095E92302C0EC91ED2BEC938FBF03
:100C3000DF91CF911F910895FC01918D228D892F15
:100C400090E0805C9F4F821B91098F7399270895D4
:100C5000FC01918D828D981731F0828DE80FF11D86
:100C6000858D90E008958FEF9FEF0895FC01918DA1
:100C7000828D981761F0828DDF01A80FB11D5D96FE
:100C80008C91928D9F5F9F73928F90E008958FEF6C
:100C90009FEF0895FC01848DDF01A80FB11DA35AB9
:100CA000BF4F2C91848D90E001968F739927848F8C
:100CB000A689B7892C93A089B1898C9180648C9383
:100CC000938D848D981306C00288F389E02D80816E
:100CD0008F7D80830895CF93DF93EC01888D8823E7
:100CE000C1F0EA89FB89808185FD05C0A889B989A1
:100CF0008C9186FD0EC00FB607FCF5CF808185FF75
:100D0000F2CFA889B9898C9185FFEDCFCE01C2DFE2
:100D1000E8CFDF91CF910895EF92FF920F931F9349
:100D2000CF93DF93EC0181E0888F9B8D8C8D98139E
:100D300005C0E889F989808185FD23C0F62E0B8DD9
:100D400010E00F5F1F4F0F731127E02E8C8DE812FC
:100D50000BC00FB607FCFACFE889F989808185FFBF
:100D6000F5CFCE0197DFF2CF8B8DFE01E80FF11D9D
:100D7000E35AFF4FF0820B8FEA89FB898081806202
:100D800007C0EE89FF896083E889F98980818064E2
:100D9000808381E090E0DF91CF911F910F91FF90D0
:100DA000EF900895CF92DF92EF92FF921F93CF932F
:100DB000DF93EC016A017B01122FE889F98982E057
:100DC00080834115514E61057105A9F060E079E01D
:100DD0008DE390E0A70196010AD7DA01C9010197D6
:100DE000A109B109B695A79597958795AC014115CD
:100DF00080E15807A0F0E889F989108260E874E87A
:100E00008EE190E0A7019601F2D6BA01A901415006
:100E10005109610971097695679557954795EC8554
:100E2000FD855083EE85FF854083188EEC89FD8912
:100E30001083EA89FB89808180618083EA89FB894C
:100E4000808188608083EA89FB89808180688083D3
:100E5000EA89FB8980818F7D8083DF91CF911F910B
:100E6000FF90EF90DF90CF9008951F920F920FB6F2
:100E70000F9211242F938F939F93EF93FF93E09101
:100E80008301F09184018081E0918901F0918A01D0
:100E900082FD12C0908180918C018F5F8F732091B1
:100EA0008D01821751F0E0918C01F0E0ED58FE4F7A
:100EB000958F80938C0101C08081FF91EF919F916C
:100EC0008F912F910F900FBE0F901F9018951F922A
:100ED0000F920FB60F9211242F933F934F935F936E
:100EE0006F937F938F939F93AF93BF93EF93FF93F2
:100EF00083E791E0CFDEFF91EF91BF91AF919F919A
:100F00008F917F916F915F914F913F912F910F90B2
:100F10000FBE0F901F901895E3E7F1E01382128245
:100F200088EE93E0A0E0B0E084839583A683B78346
:100F300089E491E09183808385EC90E095878487B4
:100F400084EC90E09787868780EC90E0918B808B93
:100F500081EC90E0938B828B82EC90E0958B848B7C
:100F600086EC90E0978B868B118E128E138E148EEA
:100F700008958F929F92AF92BF92CF92DF92EF929D
:100F8000FF920F931F93CF93DF937C018B016C0132
:100F900082E0C80ED11C4701E5E08E0E911CC0E036
:100FA000D0E0F60161916F014AE050E0C8013BD109
:100FB0005C016EE2C80168D08A0D9B1DC80FD91F65
:100FC000C814D90471F74AE050E0F7016581C801FF
:100FD0002AD18C0F9D1FDF91CF911F910F91FF9010
:100FE000EF90DF90CF90BF90AF909F908F9008953B
:100FF000E0E1F2E089E591E091838083128213823F
:10100000148215820895CF92DF92EF92FF920F9390
:101010001F93CF93DF936C017A018B01C0E0D0E086
:10102000CE15DF0589F0D8016D918D01D601ED91C6
:10103000FC910190F081E02DC6010995892B11F4F6
:101040007E0102C02196ECCFC701DF91CF911F91A5
:101050000F91FF90EF90DF90CF900895611571058B
:1010600079F0FB0101900020E9F73197AF01461BB1
:10107000570BDC01ED91FC910280F381E02D099486
:1010800080E090E00895EACFDC01ED91FC910190C1
:10109000F081E02D09946BE571E0E0CF4F925F9213
:1010A0006F927F92EF92FF920F931F93CF93DF93F4
:1010B000CDB7DEB7A1970FB6F894DEBF0FBECDBF98
:1010C0007C01FA01CB0119A2223008F42AE08E013A
:1010D0000F5D1F4F422E512C612C712CBF01A301BB
:1010E000920185D5F901CA01015011096A3014F441
:1010F000605D01C0695CD8016C93232B242B252BE8
:1011000069F7B801C701AADFA1960FB6F894DEBF50
:101110000FBECDBFDF91CF911F910F91FF90EF9048
:101120007F906F905F904F900895CF92DF92EF92F3
:10113000FF920F931F93CF93DF93EC016A017B0122
:101140002115310579F4E881F9810190F081E02DD4
:10115000642FDF91CF911F910F91FF90EF90DF905F
:10116000CF9009942A303105D9F477FF18C06DE289
:101170008BDF8C0144275527BA014C195D096E0994
:101180007F092AE0CE018ADF800F911FDF91CF9186
:101190001F910F91FF90EF90DF90CF9008952AE07C
:1011A000B701A601CE01DF91CF911F910F91FF9062
:1011B000EF90DF90CF9072CF9A01AB01770F660B63
:1011C000770BB3CF0F931F93CF93DF93EC019A016B
:1011D000AB01770F660B770BA8DF8C01CE015BDFCD
:1011E000800F911FDF91CF911F910F9108950F9361
:1011F0001F93CF93DF93EC0198DF8C01CE014BDF7F
:10120000800F911FDF91CF911F910F9108952115AC
:10121000310541F4DC01ED91FC910190F081E02D6C
:10122000642F09943BCF9A01462F50E060E070E0B4
:10123000EECF0F931F93CF93DF93EC019A01462FCC
:1012400050E060E070E0E3DF8C01CE0124DF800F2E
:10125000911FDF91CF911F910F9108959A01AB01DA
:1012600060E070E0D4CF0F931F93CF93DF93EC0136
:101270009A01AB0160E070E0CADF8C01CE010BDFA8
:10128000800F911FDF91CF911F910F9108950F93C0
:101290001F93CF93DF93EC01BADF8C01CE01FBDE0D
:1012A000800F911FDF91CF911F910F9108954F9261
:1012B0005F926F927F928F929F92AF92BF92CF92E6
:1012C000DF92EF92FF92CF93DF93EC016A017B01F3
:1012D000B22E9A01AB01C701B60171D4882319F06F
:1012E0006EE571E024C026013701E89477F82FEF0E
:1012F0003FEF4FE75FE7C301B20161D481110CC03A
:101300002FEF3FEF4FE75FE7C301B201A7D21816F7
:101310001CF462E671E00BC02FEF3FEF4FE75FE494
:10132000C701B601E5D3181694F466E671E0CE0164
:10133000DF91CF91FF90EF90DF90CF90BF90AF9073
:101340009F908F907F906F905F904F9087CE2FEF00
:101350003FEF4FE75FECC701B60180D287FDE5CFD5
:1013600020E030E0A901C701B60178D287FF09C0AB
:101370006DE2CE0189DE4C01F7FAF094F7F8F094B3
:1013800002C0812C912CA12C60E070E080E09FE3F2
:10139000AB1439F020E030E040E251E463D2A39492
:1013A000F7CF9B01AC01C701B601F4D12B013C0181
:1013B000C1D26B017C01EAD29B01AC01C301B20135
:1013C000E8D12B013C012AE0B701A601CE0166DE7F
:1013D0007C01E80CF91CBB2029F06EE2CE0154DE42
:1013E000E80EF91EDB2CDD2001F120E030E040E2C8
:1013F00051E4C301B20180D32B013C019BD24B01CC
:10140000A12CB12C2AE0B501A401CE0147DEE80EE3
:10141000F91EC501B401BAD29B01AC01C301B201EE
:10142000B8D12B013C01DA94DECFC701DF91CF9117
:10143000FF90EF90DF90CF90BF90AF909F908F90F4
:101440007F906F905F904F90089531CF0F931F93CF
:10145000CF93DF93EC012BDF8C01CE011CDE800FDC
:10146000911FDF91CF911F910F9108950F931F93BB
:10147000CF93DF93EC0141DB688779878A879B876D
:10148000E881F9810680F781E02DCE01099597FF6B
:1014900016C033DB088519852A853B85DC01CB0125
:1014A000801B910BA20BB30B0C811D812E813F8100
:1014B00080179107A207B30718F38FEF9FEFDF9113
:1014C000CF911F910F910895CF92DF92EF92FF92EB
:1014D0000F931F93CF93DF936C017A018B01C0E0D0
:1014E000D0E0CE15DF0559F0C601C0DF97FF02C07E
:1014F0007E0105C0F80181938F012196F2CFC701CB
:10150000DF91CF911F910F91FF90EF90DF90CF90DF
:101510000895813039F018F0823051F0089510921A
:101520006E00089580916F008D7F80936F00089505
:10153000809170008D7F8093700081E08093B00077
:101540008091B100887F84608093B1001092B300D5
:101550000895CF93C82F809142018C1307C0EEEA03
:10156000F0E0E4918FEF8093420101C0EFEF8E2F06
:10157000D0DF60E08C2FCF9130CB1F920F920FB64F
:101580000F9211242F933F934F935F936F937F9309
:101590008F939F93AF93BF93EF93FF938091190223
:1015A00090911A02A0911B02B0911C02892B8A2BE8
:1015B0008B2B51F180911602E0911702F0911802E5
:1015C0009081892780838091190290911A02A091BD
:1015D0001B02B0911C02181619061A061B06BCF451
:1015E0008091190290911A02A0911B02B0911C02E5
:1015F0000197A109B1098093190290931A02A0934F
:101600001B02B0931C0203C080914201A2DFFF9134
:10161000EF91BF91AF919F918F917F916F915F916A
:101620004F913F912F910F900FBE0F901F901895E3
:1016300040E855E260E070E080E090E000C026E025
:1016400083E791E0AFCB1F920F920FB60F92112458
:101650002F933F934F935F936F937F938F939F93BA
:10166000AF93BF93EF93FF9386E997EE9093850036
:101670008093840032D0FF91EF91BF91AF919F9101
:101680008F917F916F915F914F913F912F910F902B
:101690000FBE0F901F90189586E997EE90938500E6
:1016A00080938400AFE6B0E08C918E7F8C93E0E86D
:1016B000F0E080818C7F8083E1E8F0E08081877EAC
:1016C000808380818460808380818C7F80838C9103
:1016D00081608C93089581E0089580911E0291E0CD
:1016E000980F90931E02882339F021E030E0309368
:1016F000200220931F0207C078940E94B602F8943B
:1017000080911E02815080931E0208950F931F93B3
:10171000CF93DF931F92CDB7DEB781E08983F9D9EC
:1017200087DF0091430110914401F801118210827A
:10173000B9D8B2DF81E0F80120813181232B09F093
:1017400080E089837894789489818823C1F081E04E
:10175000F80120813181232B09F480E080931D0260
:1017600090911D0281E0911180E089838981882315
:1017700011F0B1DF02C080E090E08983E5CFF3D8BB
:10178000F89480E090E00F90DF91CF911F910F913E
:1017900008955058BB27AA270ED070C161D130F0F0
:1017A00066D120F031F49F3F11F41EF456C10EF4BF
:1017B000E095E7FB4CC1E92F72D180F3BA176207BD
:1017C00073078407950718F071F49EF58AC10EF42B
:1017D000E0950B2EBA2FA02D0B01B90190010C0141
:1017E000CA01A0011124FF27591B99F0593F50F459
:1017F000503E68F11A16F040A22F232F342F4427B1
:10180000585FF3CF469537952795A795F0405395A8
:10181000C9F77EF41F16BA0B620B730B840BBAF078
:101820009150A1F0FF0FBB1F661F771F881FC2F7E3
:101830000EC0BA0F621F731F841F48F487957795F7
:101840006795B795F7959E3F08F0B3CF9395880FAE
:1018500008F09927EE0F979587950895D4D008F44E
:1018600081E008950CD00AC102D140F0F9D030F0E7
:1018700021F45F3F19F0EBC0511134C1EEC00FD11C
:1018800098F39923C9F35523B1F3951B550BBB2747
:10189000AA2762177307840738F09F5F5F4F220FF4
:1018A000331F441FAA1FA9F333D00E2E3AF0E0E8ED
:1018B00030D091505040E695001CCAF729D0FE2F39
:1018C00027D0660F771F881FBB1F261737074807CB
:1018D000AB07B0E809F0BB0B802DBF01FF27935881
:1018E0005F4F2AF09E3F510568F0B1C0FBC05F3FDB
:1018F000ECF3983EDCF3869577956795B795F79569
:101900009F5FC9F7880F911D9695879597F9089560
:10191000E1E0660F771F881FBB1F621773078407FC
:10192000BA0720F0621B730B840BBA0BEE1F88F70B
:10193000E0950895BCD088F09F5790F0B92F992773
:10194000B751A0F0D1F0660F771F881F991F1AF0CA
:10195000BA95C9F712C0B13081F0C3D0B1E0089593
:10196000C0C0672F782F8827B85F39F0B93FCCF314
:10197000869577956795B395D9F73EF490958095C0
:10198000709561957F4F8F4F9F4F0895E89409C0E0
:1019900097FB3EF490958095709561957F4F8F4FA2
:1019A0009F4F9923A9F0F92F96E9BB279395F695B8
:1019B000879577956795B795F111F8CFFAF4BB0F36
:1019C00011F460FF1BC06F5F7F4F8F4F9F4F16C09A
:1019D000882311F096E911C0772321F09EE8872F24
:1019E000762F05C0662371F096E8862F70E060E0E0
:1019F0002AF09A95660F771F881FDAF7880F969559
:101A0000879597F90895990F0008550FAA0BE0E8FC
:101A1000FEEF16161706E807F907C0F012161306B0
:101A2000E407F50798F0621B730B840B950B39F4F0
:101A30000A2661F0232B242B252B21F408950A2656
:101A400009F4A140A6958FEF811D811D089597F996
:101A50009F6780E870E060E008959FEF80EC089554
:101A600000240A941616170618060906089500247D
:101A70000A9412161306140605060895092E0394F7
:101A8000000C11F4882352F0BB0F40F4BF2B11F46B
:101A900060FF04C06F5F7F4F8F4F9F4F089557FDCA
:101AA0009058440F551F59F05F3F71F04795880FCC
:101AB00097FB991F61F09F3F79F087950895121663
:101AC00013061406551FF2CF4695F1DF08C016160F
:101AD00017061806991FF1CF8695710561050894C0
:101AE0000895E894BB2766277727CB0197F90895D7
:101AF0008ADF08F48FEF08950BD0C0CFB1DF28F054
:101B0000B6DF18F0952309F0A2CFA7CF1124EACFB2
:101B1000C6DFA0F3959FD1F3950F50E0551F629F4C
:101B2000F001729FBB27F00DB11D639FAA27F00D36
:101B3000B11DAA1F649F6627B00DA11D661F829F5D
:101B40002227B00DA11D621F739FB00DA11D621F42
:101B5000839FA00D611D221F749F3327A00D611D5F
:101B6000231F849F600D211D822F762F6A2F112441
:101B70009F5750408AF0E1F088234AF0EE0FFF1F94
:101B8000BB1F661F771F881F91505040A9F79E3FCB
:101B9000510570F05CCFA6CF5F3FECF3983EDCF3CD
:101BA000869577956795B795F795E7959F5FC1F708
:101BB000FE2B880F911D9695879597F9089523DF41
:101BC000880B990B0895AA1BBB1B51E107C0AA1FE4
:101BD000BB1FA617B70710F0A61BB70B881F991FCE
:101BE0005A95A9F780959095BC01CD010895A1E281
:101BF0001A2EAA1BBB1BFD010DC0AA1FBB1FEE1F87
:101C0000FF1FA217B307E407F50720F0A21BB30BD1
:101C1000E40BF50B661F771F881F991F1A9469F74D
:101C200060957095809590959B01AC01BD01CF01A9
:101C30000895EE0FFF1F0590F491E02D0994F8949C
:021C4000FFCFD4
:101C420000007402800001000000B302D301000012
:101C5200803F0000000017B7D1380AD7233C0000AC
:101C6200803F00000000CDCCCC3D00000000CDCC78
:101C7200CC3D000000000000C8420000C8C2E404DD
:101C8200E404FF2902000000008C0603081C06364B
:101C92000628066B0600000000B9070D0A006E61F7
:0A1CA2006E00696E66006F76660042
:00000001FF
