:1000000059C0000083C30000A8C300007BC00000EB
:1000100079C0000077C0000075C000000C945E0934
:1000200071C000006FC000006DC000006BC0000018
:1000300069C000000C94C40965C0000063C00000E2
:10004000B3C300005FC00000B1C50000E1C50000FF
:1000500059C0000057C0000055C0000053C0000048
:1000600051C000004FC00000000000080002010065
:100070000003040700000000000000000102040863
:100080001020408001020408102001020408102002
:10009000040404040404040402020202020203032E
:1000A0000303030300000000250028002B000200CA
:1000B0002D06990611241FBECFEFD8E0DEBFCDBFBD
:1000C00011E0A0E0B1E0E2E8F9E102C005900D9294
:1000D000AC33B107D9F722E0ACE3B1E001C01D9227
:1000E000A633B207E1F710E0CAE5D0E004C02197DB
:1000F000FE010E94B90CC835D107C9F70E94260A33
:100100000C94BF0C7DCF6F927F928F929F92AF9293
:10011000BF92CF92DF92EF92FF920F931F93CF93F4
:10012000DF931F92CDB7DEB7F02E9C2D30E0283044
:10013000310511F424E030E0992339F0913041F099
:10014000923049F002E010E008C00AE010E005C07B
:1001500000E110E002C008E010E081110DC1F110D3
:100160001AC0249FC001259F900D349F900D11242B
:10017000AC0185E491E00F90DF91CF911F910F9139
:10018000FF90EF90DF90CF90BF90AF909F908F90B7
:100190007F906F90D9C5C4016A01B72E962EBC011D
:1001A00085E491E0E98210D63981311119C0692CBA
:1001B0007B2CC60CD71C6C147D0409F4DDC081E0D7
:1001C000A801F3016081F81204C085E491E0CCD667
:1001D00003C085E491E0CED6FFEF6F1A7F0AEBCF24
:1001E0003130D9F4692C7B2CC114D10409F4C4C07A
:1001F00081E0F30160817181A801F81204C085E4F7
:1002000091E0CDD603C085E491E0CED6F1E0CF1ADF
:10021000D10882E0680E711CE7CF323019F5692CE5
:100220007B2CC114D10409F4A7C0E1E0FE120AC07E
:10023000F3014081518162817381980185E491E0ED
:1002400087D609C0F3014081518162817381980191
:1002500085E491E0BDD6F1E0CF1AD10884E0680EC4
:10026000711CDFCF333011F5692C7B2CC60CD71CE9
:100270006C147D0409F480C0E1E0FE120AC0F301B1
:100280006081062E000C770BA80185E491E035D63D
:1002900009C0F3016081062E000C770BA80185E4EC
:1002A00091E031D6FFEF6F1A7F0AE2CF3430D9F4F4
:1002B000692C7B2CC114D10409F45EC081E0F301E8
:1002C00060817181A801F81204C085E491E015D61F
:1002D00003C085E491E017D6F1E0CF1AD10882E09F
:1002E000680E711CE7CF353019F5692C7B2CC114D1
:1002F000D10409F441C0E1E0FE120AC0F3014081DB
:10030000518162817381980185E491E0AFD509C084
:10031000F3014081518162817381980185E491E00C
:1003200007D6F1E0CF1AD10884E0680E711CDFCF48
:10033000363011F5092D1B2DB12CC114D104E1F07B
:10034000E1E0FE120AC0F8014081518162817381AF
:10035000950185E491E01AD709C0F80140815181E7
:1003600062817381950185E491E011D7F1E0CF1AA4
:10037000D1080C5F1F4FE1CF0F90DF91CF911F91FC
:100380000F91FF90EF90DF90CF90BF90AF909F9034
:100390008F907F906F900895AB01BC0185E491E050
:1003A00034C7AF92BF92CF92DF92EF92FF920F933A
:1003B0001F93CF93DF9300D0CDB7DEB77B015901F8
:1003C000CDB6DEB69B01220F331F6DB77EB7621B21
:1003D000730B0FB6F8947EBF0FBE6DBF0DB71EB77F
:1003E0000F5F1F4FE82FF0E0EE0FFF1FE45FFE4F9F
:1003F0000190F081E02DB701C80149835A83099526
:10040000F8014981A42F5A81B52FE00EF11EEE1597
:10041000FF0519F081918D93FACF81E0F50180837A
:100420000FB6F894DEBE0FBECDBE0F900F90DF91D9
:10043000CF911F910F91FF90EF90DF90CF90BF90E1
:10044000AF900895CF92DF92EF92FF920F931F9398
:10045000CF93DF93CDB7DEB7C354D1090FB6F8946D
:10046000DEBF0FBECDBFF82E8B01E52EC82ED12CDE
:10047000CC0CDD1CF601E65FFE4F0190F081E02D13
:1004800022962FAF229723963FAF239724964FAF04
:1004900024970995BC0122962FAD229723963FAD54
:1004A000239724964FAD24978017910711F45E2D62
:1004B00038C08017910728F4E42FFE2D0E0F1F1F60
:1004C00033C0C801880F991F8617970740F5F601BA
:1004D000E45FFE4FCB01B8010E94830CCB01019772
:1004E000809FB001819F700D909F700D112401902D
:1004F000F081E02DCE01019622962FAF2297239610
:100500003FAF239724964FAF2497099522962FAD9E
:10051000229723963FAD239724964FAD24975E2DC7
:10052000B8018F2D3EDF07C0E017F10711F01192DF
:10053000FBCFF9011082CD5BDF4F0FB6F894DEBF21
:100540000FBECDBFDF91CF911F910F91FF90EF9024
:10055000DF90CF90089585E491E00FC28F929F9233
:10056000AF92CF92EF920F93CF93DF9300D01F9271
:10057000CDB7DEB760913202709133029E012F5FDA
:100580003F4FAE014E5F5F4F80E05CDF8981882383
:1005900069F090910F018A81899FC0011124880F11
:1005A000892F881F990B91958093F3018091F30116
:1005B0008A8360912A0270912B0280912C02909183
:1005C0002D020E943A0BC62E6091220270912302E6
:1005D00080912402909125020E943A0BE62E6091B0
:1005E00026027091270280912802909129020E9490
:1005F0003A0B062F60911E0270911F02809120021B
:10060000909121020E943A0B262F60911A0270915C
:100610001B0280911C0290911D022B830E943A0BB9
:10062000862F812C912C92E0A92E2B8141E050E065
:10063000BE016E5F7F4F67DD0F900F900F90DF91CF
:10064000CF910F91EF90CF90AF909F908F900895A2
:100650001092F5011092F401E6EFF1E080E4DF0181
:100660001D928A95E9F781E090E0A0E0B0E080AFCC
:1006700091AFA2AFB3AF21E030E0309335022093C9
:10068000340235AF24AF80839183A283B38380E0AB
:1006900090E0A0E8BFE380A791A7A2A7B3A78091AD
:1006A0000E018093F301089580912E0290912F0204
:1006B000A0913002B09131020197A105B10561F41A
:1006C00082E090E0A0E0B0E080932E0290932F02B1
:1006D000A0933002B09331028091F6019091F7011E
:1006E000A091F801B091F9010197A105B10561F45C
:1006F00082E090E0A0E0B0E08093F6019093F701F3
:10070000A093F801B093F901089508951F920F92F4
:100710000FB60F9211242F933F934F935F936F93D4
:100720007F938F939F93AF93BF93EF93FF93E0914A
:100730001001F09111010995FF91EF91BF91AF91D7
:100740009F918F917F916F915F914F913F912F91E9
:100750000F900FBE0F901F9018951F920F920FB61B
:100760000F9211242F933F934F935F936F937F9337
:100770008F939F93AF93BF93EF93FF93E0911201F9
:10078000F09113010995FF91EF91BF91AF919F9166
:100790008F917F916F915F914F913F912F910F902A
:1007A0000FBE0F901F9018951F920F920FB60F92C9
:1007B00011242F933F938F939F93AF93BF93809177
:1007C0003D0190913E01A0913F01B09140013091D7
:1007D0003C0123E0230F2D3720F40196A11DB11D0C
:1007E00005C026E8230F0296A11DB11D20933C01F0
:1007F00080933D0190933E01A0933F01B09340014F
:100800008091410190914201A0914301B091440136
:100810000196A11DB11D8093410190934201A093C7
:100820004301B0934401BF91AF919F918F913F914C
:100830002F910F900FBE0F901F9018952FB7F8941F
:1008400060913D0170913E0180913F019091400186
:100850002FBF0895789484B5826084BD84B581608B
:1008600084BD85B5826085BD85B5816085BDEEE6B8
:10087000F0E0808181608083E1E8F0E01082808197
:1008800082608083808181608083E0E8F0E0808105
:1008900081608083E1EBF0E0808184608083E0EB25
:1008A000F0E0808181608083EAE7F0E0808184600D
:1008B0008083808182608083808181608083808169
:1008C000806880831092C1000895833081F028F4FD
:1008D000813099F08230A1F008958730A9F08830F6
:1008E000B9F08430D1F4809180008F7D03C0809175
:1008F00080008F7780938000089584B58F7702C041
:1009000084B58F7D84BD08958091B0008F7703C03A
:100910008091B0008F7D8093B00008951F93CF9396
:10092000DF93282F30E0F901E859FF4F8491F90156
:10093000E458FF4FD491F901E057FF4FC491CC2305
:10094000C1F0162F8111C1DFEC2FF0E0EE0FFF1F79
:10095000EC55FF4FA591B4918FB7F894111105C0D4
:100960009C91ED2FE095E92302C0EC91ED2BEC93E7
:100970008FBFDF91CF911F910895FC01918D228D42
:10098000892F90E0805C9F4F821B91098F7399277C
:100990000895FC01918D828D981731F0828DE80FBA
:1009A000F11D858D90E008958FEF9FEF0895FC0174
:1009B000918D828D981761F0828DDF01A80FB11D96
:1009C0005D968C91928D9F5F9F73928F90E00895BA
:1009D0008FEF9FEF0895FC01848DDF01A80FB11DFB
:1009E000A35ABF4F2C91848D90E001968F73992765
:1009F000848FA689B7892C93A089B1898C91806452
:100A00008C93938D848D981306C00288F389E02D12
:100A100080818F7D80830895CF93DF93EC01888D53
:100A20008823C1F0EA89FB89808185FD05C0A889FA
:100A3000B9898C9186FD0EC00FB607FCF5CF808179
:100A400085FFF2CFA889B9898C9185FFEDCFCE01C2
:100A5000C2DFE8CFDF91CF910895EF92FF920F931D
:100A60001F93CF93DF93EC0181E0888F9B8D8C8D5A
:100A7000981305C0E889F989808185FD23C0F62E89
:100A80000B8D10E00F5F1F4F0F731127E02E8C8D21
:100A9000E8120BC00FB607FCFACFE889F98980810C
:100AA00085FFF5CFCE0197DFF2CF8B8DFE01E80FEA
:100AB000F11DE35AFF4FF0820B8FEA89FB89808199
:100AC000806207C0EE89FF896083E889F9898081A7
:100AD0008064808381E090E0DF91CF911F910F913E
:100AE000FF90EF900895CF92DF92EF92FF921F93C5
:100AF000CF93DF93EC016A017B01122FE889F9891A
:100B000082E080834115514E61057105A9F060E0D6
:100B100079E08DE390E0A701960109D7DA01C901D8
:100B20000197A109B109B695A79597958795AC014D
:100B3000411580E15807A0F0E889F989108260E842
:100B400074E88EE190E0A7019601F1D6BA01A901FF
:100B500041505109610971097695679557954795F7
:100B6000EC85FD855083EE85FF854083188EEC89EA
:100B7000FD891083EA89FB89808180618083EA890D
:100B8000FB89808188608083EA89FB898081806815
:100B90008083EA89FB8980818F7D8083DF91CF917B
:100BA0001F91FF90EF90DF90CF9008951F920F92CA
:100BB0000FB60F9211242F938F939F93EF93FF9370
:100BC000E0915501F09156018081E0915B01F09137
:100BD0005C0182FD12C0908180915E018F5F8F73F6
:100BE00020915F01821751F0E0915E01F0E0EB5B34
:100BF000FE4F958F80935E0101C08081FF91EF9140
:100C00009F918F912F910F900FBE0F901F9018956D
:100C10001F920F920FB60F9211242F933F934F9371
:100C20005F936F937F938F939F93AF93BF93EF9354
:100C3000FF9385E491E0CFDEFF91EF91BF91AF91FB
:100C40009F918F917F916F915F914F913F912F91E4
:100C50000F900FBE0F901F901895E5E4F1E01382FE
:100C6000128288EE93E0A0E0B0E084839583A683AF
:100C7000B7838BE191E09183808385EC90E0958749
:100C8000848784EC90E09787868780EC90E0918B56
:100C9000808B81EC90E0938B828B82EC90E0958B43
:100CA000848B86EC90E0978B868B118E128E138E40
:100CB000148E08958F929F92AF92BF92CF92DF923F
:100CC000EF92FF920F931F93CF93DF937C018B01E1
:100CD0006C0182E0C80ED11C4701E5E08E0E911C2C
:100CE000C0E0D0E0F60161916F014AE050E0C80138
:100CF0003BD15C016EE2C80168D08A0D9B1DC80F14
:100D0000D91FC814D90471F74AE050E0F701658192
:100D1000C8012AD18C0F9D1FDF91CF911F910F9198
:100D2000FF90EF90DF90CF90BF90AF909F908F900B
:100D30000895E2EEF1E08BE291E0918380831282EC
:100D40001382148215820895CF92DF92EF92FF9260
:100D50000F931F93CF93DF936C017A018B01C0E057
:100D6000D0E0CE15DF0589F0D8016D918D01D60157
:100D7000ED91FC910190F081E02DC6010995892B40
:100D800011F47E0102C02196ECCFC701DF91CF9113
:100D90001F910F91FF90EF90DF90CF900895611514
:100DA000710579F0FB0101900020E9F73197AF015F
:100DB000461B570BDC01ED91FC910280F381E02D85
:100DC000099480E090E00895EACFDC01ED91FC9178
:100DD0000190F081E02D09946DE271E0E0CF4F9237
:100DE0005F926F927F92EF92FF920F931F93CF9338
:100DF000DF93CDB7DEB7A1970FB6F894DEBF0FBE75
:100E0000CDBF7C01FA01CB0119A2223008F42AE0FF
:100E10008E010F5D1F4F422E512C612C712CBF0192
:100E2000A301920184D5F901CA01015011096A3068
:100E300014F4605D01C0695CD8016C93232B242BF2
:100E4000252B69F7B801C701AADFA1960FB6F89460
:100E5000DEBF0FBECDBFDF91CF911F910F91FF90ED
:100E6000EF907F906F905F904F900895CF92DF92B8
:100E7000EF92FF920F931F93CF93DF93EC016A01E0
:100E80007B012115310579F4E881F9810190F08128
:100E9000E02D642FDF91CF911F910F91FF90EF9084
:100EA000DF90CF9009942A303105D9F477FF18C02C
:100EB0006DE28BDF8C0144275527BA014C195D097F
:100EC0006E097F092AE0CE018ADF800F911FDF9132
:100ED000CF911F910F91FF90EF90DF90CF900895E9
:100EE0002AE0B701A601CE01DF91CF911F910F91AA
:100EF000FF90EF90DF90CF9072CF9A01AB01770F08
:100F0000660B770BB3CF0F931F93CF93DF93EC0157
:100F10009A01AB01770F660B770BA8DF8C01CE012E
:100F20005BDF800F911FDF91CF911F910F9108958B
:100F30000F931F93CF93DF93EC0198DF8C01CE01C9
:100F40004BDF800F911FDF91CF911F910F9108957B
:100F50002115310541F4DC01ED91FC910190F08106
:100F6000E02D642F09943BCF9A01462F50E060E0BA
:100F700070E0EECF0F931F93CF93DF93EC019A01B4
:100F8000462F50E060E070E0E3DF8C01CE0124DF0B
:100F9000800F911FDF91CF911F910F9108959A01BA
:100FA000AB0160E070E0D4CF0F931F93CF93DF933A
:100FB000EC019A01AB0160E070E0CADF8C01CE0168
:100FC0000BDF800F911FDF91CF911F910F9108953B
:100FD0000F931F93CF93DF93EC01BADF8C01CE0107
:100FE000FBDE800F911FDF91CF911F910F9108952C
:100FF0004F925F926F927F928F929F92AF92BF9229
:10100000CF92DF92EF92FF92CF93DF93EC016A01D0
:101010007B01B22E9A01AB01C701B60170D48823BF
:1010200019F060E371E024C026013701E89477F8F5
:101030002FEF3FEF4FE75FE7C301B20160D48111AB
:101040000CC02FEF3FEF4FE75FE7C301B201A6D21D
:1010500018161CF464E371E00BC02FEF3FEF4FE76D
:101060005FE4C701B601E4D3181694F468E371E0B5
:10107000CE01DF91CF91FF90EF90DF90CF90BF90A6
:10108000AF909F908F907F906F905F904F9087CEA2
:101090002FEF3FEF4FE75FECC701B6017FD287FD2F
:1010A000E5CF20E030E0A901C701B60177D287FF84
:1010B00009C06DE2CE0189DE4C01F7FAF094F7F831
:1010C000F09402C0812C912CA12C60E070E080E0B3
:1010D0009FE3AB1439F020E030E040E251E462D20B
:1010E000A394F7CF9B01AC01C701B601F3D12B014B
:1010F0003C01C0D26B017C01E9D29B01AC01C30170
:10110000B201E7D12B013C012AE0B701A601CE01D3
:1011100066DE7C01E80CF91CBB2029F06EE2CE01F2
:1011200054DEE80EF91EDB2CDD2001F120E030E07A
:1011300040E251E4C301B2017FD32B013C019AD2BA
:101140004B01A12CB12C2AE0B501A401CE0147DE50
:10115000E80EF91EC501B401B9D29B01AC01C3016F
:10116000B201B7D12B013C01DA94DECFC701DF9188
:10117000CF91FF90EF90DF90CF90BF90AF909F9076
:101180008F907F906F905F904F90089531CF0F9325
:101190001F93CF93DF93EC012BDF8C01CE011CDE7C
:1011A000800F911FDF91CF911F910F9108950F93A1
:1011B0001F93CF93DF93EC0141DB688779878A87A0
:1011C0009B87E881F9810680F781E02DCE010995A2
:1011D00097FF16C033DB088519852A853B85DC011E
:1011E000CB01801B910BA20BB30B0C811D812E81B7
:1011F0003F8180179107A207B30718F38FEF9FEF86
:10120000DF91CF911F910F910895CF92DF92EF92CE
:10121000FF920F931F93CF93DF936C017A018B01A1
:10122000C0E0D0E0CE15DF0559F0C601C0DF97FF62
:1012300002C07E0105C0F80181938F012196F2CF93
:10124000C701DF91CF911F910F91FF90EF90DF9039
:10125000CF900895813039F018F0823051F0089520
:1012600010926E00089580916F008D7F80936F00C3
:101270000895809170008D7F8093700081E080934D
:10128000B0008091B100887F84608093B10010929B
:10129000B3000895CF93C82F809114018C1307C019
:1012A000EEEAF0E0E4918FEF8093140101C0EFEFDC
:1012B0008E2FD0DF60E08C2FCF9130CB1F920F921A
:1012C0000FB60F9211242F933F934F935F936F9319
:1012D0007F938F939F93AF93BF93EF93FF938091EF
:1012E000EB019091EC01A091ED01B091EE01892B01
:1012F0008A2B8B2B51F18091E801E091E901F0916B
:10130000EA019081892780838091EB019091EC0123
:10131000A091ED01B091EE01181619061A061B06F0
:10132000BCF48091EB019091EC01A091ED01B091A2
:10133000EE010197A109B1098093EB019093EC01B3
:10134000A093ED01B093EE0103C080911401A2DFE0
:10135000FF91EF91BF91AF919F918F917F916F918D
:101360005F914F913F912F910F900FBE0F901F9063
:10137000189540E855E260E070E080E090E000C041
:1013800026E085E491E0AFCB1F920F920FB60F924B
:1013900011242F933F934F935F936F937F938F937A
:1013A0009F93AF93BF93EF93FF9386E997EE90934C
:1013B00085008093840032D0FF91EF91BF91AF916F
:1013C0009F918F917F916F915F914F913F912F915D
:1013D0000F900FBE0F901F90189586E997EE90938F
:1013E000850080938400AFE6B0E08C918E7F8C9373
:1013F000E0E8F0E080818C7F8083E1E8F0E08081AC
:10140000877E808380818460808380818C7F8083DD
:101410008C9181608C93089581E008958091F00112
:1014200091E0980F9093F001882339F021E030E0AB
:101430003093F2012093F10106C078948FD8F8948C
:101440008091F00181508093F00108950F931F93D4
:10145000CF93DF931F92CDB7DEB781E08983FAD9AE
:1014600088DF0091150110911601F8011182108298
:10147000EFD8B3DF81E0F80120813181232B09F01F
:1014800080E089837894789489818823C1F081E011
:10149000F80120813181232B09F480E08093EF0152
:1014A0009091EF0181E0911180E089838981882307
:1014B00011F0B2DF02C080E090E08983E5CFF4D87C
:1014C000F89480E090E00F90DF91CF911F910F9101
:1014D00008955058BB27AA270ED070C161D130F0B3
:1014E00066D120F031F49F3F11F41EF456C10EF482
:1014F000E095E7FB4CC1E92F72D180F3BA17620780
:1015000073078407950718F071F49EF58AC10EF4ED
:10151000E0950B2EBA2FA02D0B01B90190010C0103
:10152000CA01A0011124FF27591B99F0593F50F41B
:10153000503E68F11A16F040A22F232F342F442773
:10154000585FF3CF469537952795A795F04053956B
:10155000C9F77EF41F16BA0B620B730B840BBAF03B
:101560009150A1F0FF0FBB1F661F771F881FC2F7A6
:101570000EC0BA0F621F731F841F48F487957795BA
:101580006795B795F7959E3F08F0B3CF9395880F71
:1015900008F09927EE0F979587950895D4D008F411
:1015A00081E008950CD00AC102D140F0F9D030F0AA
:1015B00021F45F3F19F0EBC0511134C1EEC00FD1DF
:1015C00098F39923C9F35523B1F3951B550BBB270A
:1015D000AA2762177307840738F09F5F5F4F220FB7
:1015E000331F441FAA1FA9F333D00E2E3AF0E0E8B0
:1015F00030D091505040E695001CCAF729D0FE2FFC
:1016000027D0660F771F881FBB1F2617370748078D
:10161000AB07B0E809F0BB0B802DBF01FF27935843
:101620005F4F2AF09E3F510568F0B1C0FBC05F3F9D
:10163000ECF3983EDCF3869577956795B795F7952B
:101640009F5FC9F7880F911D9695879597F9089523
:10165000E1E0660F771F881FBB1F621773078407BF
:10166000BA0720F0621B730B840BBA0BEE1F88F7CE
:10167000E0950895BCD088F09F5790F0B92F992736
:10168000B751A0F0D1F0660F771F881F991F1AF08D
:10169000BA95C9F712C0B13081F0C3D0B1E0089556
:1016A000C0C0672F782F8827B85F39F0B93FCCF3D7
:1016B000869577956795B395D9F73EF49095809583
:1016C000709561957F4F8F4F9F4F0895E89409C0A3
:1016D00097FB3EF490958095709561957F4F8F4F65
:1016E0009F4F9923A9F0F92F96E9BB279395F6957B
:1016F000879577956795B795F111F8CFFAF4BB0FF9
:1017000011F460FF1BC06F5F7F4F8F4F9F4F16C05C
:10171000882311F096E911C0772321F09EE8872FE6
:10172000762F05C0662371F096E8862F70E060E0A2
:101730002AF09A95660F771F881FDAF7880F96951B
:10174000879597F90895990F0008550FAA0BE0E8BF
:10175000FEEF16161706E807F907C0F01216130673
:10176000E407F50798F0621B730B840B950B39F4B3
:101770000A2661F0232B242B252B21F408950A2619
:1017800009F4A140A6958FEF811D811D089597F959
:101790009F6780E870E060E008959FEF80EC089517
:1017A00000240A9416161706180609060895002440
:1017B0000A9412161306140605060895092E0394BA
:1017C000000C11F4882352F0BB0F40F4BF2B11F42E
:1017D00060FF04C06F5F7F4F8F4F9F4F089557FD8D
:1017E0009058440F551F59F05F3F71F04795880F8F
:1017F00097FB991F61F09F3F79F087950895121626
:1018000013061406551FF2CF4695F1DF08C01616D1
:1018100017061806991FF1CF869571056105089482
:101820000895E894BB2766277727CB0197F9089599
:101830008ADF08F48FEF08950BD0C0CFB1DF28F016
:10184000B6DF18F0952309F0A2CFA7CF1124EACF75
:10185000C6DFA0F3959FD1F3950F50E0551F629F0F
:10186000F001729FBB27F00DB11D639FAA27F00DF9
:10187000B11DAA1F649F6627B00DA11D661F829F20
:101880002227B00DA11D621F739FB00DA11D621F05
:10189000839FA00D611D221F749F3327A00D611D22
:1018A000231F849F600D211D822F762F6A2F112404
:1018B0009F5750408AF0E1F088234AF0EE0FFF1F57
:1018C000BB1F661F771F881F91505040A9F79E3F8E
:1018D000510570F05CCFA6CF5F3FECF3983EDCF390
:1018E000869577956795B795F795E7959F5FC1F7CB
:1018F000FE2B880F911D9695879597F9089523DF04
:10190000880B990B0895AA1BBB1B51E107C0AA1FA6
:10191000BB1FA617B70710F0A61BB70B881F991F90
:101920005A95A9F780959095BC01CD010895A1E243
:101930001A2EAA1BBB1BFD010DC0AA1FBB1FEE1F49
:10194000FF1FA217B307E407F50720F0A21BB30B94
:10195000E40BF50B661F771F881F991F1A9469F710
:1019600060957095809590959B01AC01BD01CF016C
:101970000895EE0FFF1F0590F491E02D0994F8945F
:02198000FFCF97
:1019820000003602800001000000AB02CC010080A2
:1019920085038503FFF401000000002D05A406BDA8
:1019A20004D704C9040C05000000005A060D0A0001
:0C19B2006E616E00696E66006F76660064
:00000001FF
