:1000000059C000000C94310E0C94580E7BC00000B7
:1000100079C0000077C0000075C000000C9409147E
:1000200071C000006FC000006DC000006BC0000018
:1000300069C000000C946F1465C0000063C000002C
:100040000C947F0E5FC000000C9481100C94B310D0
:1000500059C0000057C0000055C0000053C0000048
:1000600051C000004FC00000000000080002010065
:100070000003040700000000000000000102040863
:100080001020408001020408102001020408102002
:10009000040404040404040402020202020203032E
:1000A0000303030300000000250028002B000200CA
:1000B000D810441111241FBECFEFD8E0DEBFCDBF52
:1000C00011E0A0E0B1E0EAE2FFE202C005900D928B
:1000D000AE36B107D9F722E0AEE6B1E001C01D921D
:1000E000A33DB207E1F710E0CAE5D0E004C02197D4
:1000F000FE010E947E17C835D107C9F70E94D214AD
:100100000C9493177DCF6F927F928F929F92AF92B4
:10011000BF92CF92DF92EF92FF920F931F93CF93F4
:10012000DF931F92CDB7DEB7F02E9C2D30E0283044
:10013000310511F424E030E0992339F0913041F099
:10014000923049F002E010E008C00AE010E005C07B
:1001500000E110E002C008E010E081111DC1F110C3
:100160001BC0249FC001259F900D349F900D11242A
:10017000AC0187E791E00F90DF91CF911F910F9134
:10018000FF90EF90DF90CF90BF90AF909F908F90B7
:100190007F906F900C944F11C4016A01B72E962E78
:1001A000BC0187E791E0E9820E948F11398131110A
:1001B0001BC0692C7B2CC60CD71C6C147D0409F465
:1001C000EBC081E0A801F3016081F81205C087E768
:1001D00091E00E945F1204C087E791E00E946512DF
:1001E000FFEF6F1A7F0AE9CF3130E9F4692C7B2CDD
:1001F000C114D10409F4D0C081E0F30160817181A0
:10020000A801F81205C087E791E00E947A1204C0A5
:1002100087E791E00E947F12F1E0CF1AD10882E0D7
:10022000680E711CE5CF323029F5692C7B2CC11486
:10023000D10409F4B1C0E1E0FE120BC0F30140812A
:10024000518162817381980187E791E00E94531286
:100250000AC0F3014081518162817381980187E76F
:1002600091E00E949312F1E0CF1AD10884E0680E69
:10027000711CDDCF333021F5692C7B2CC60CD71CCB
:100280006C147D0409F488C0E1E0FE120BC0F30198
:100290006081062E000C770BA80187E791E00E9491
:1002A00028120AC0F3016081062E000C770BA8010A
:1002B00087E791E00E942E12FFEF6F1A7F0AE0CFCE
:1002C0003430E9F4692C7B2CC114D10409F464C0E6
:1002D00081E0F30160817181A801F81205C087E710
:1002E00091E00E94281204C087E791E00E942E123C
:1002F000F1E0CF1AD10882E0680E711CE5CF3530ED
:1003000029F5692C7B2CC114D10409F445C0E1E026
:10031000FE120BC0F301408151816281738198010B
:1003200087E791E00E94E1110AC0F3014081518109
:1003300062817381980187E791E00E944312F1E0A6
:10034000CF1AD10884E0680E711CDDCF363021F55C
:10035000092D1B2DB12CC114D104F1F0E1E0FE12E6
:100360000BC0F8014081518162817381950187E75B
:1003700091E00E9471130AC0F801408151816281AD
:100380007381950187E791E00E947213F1E0CF1A23
:10039000D1080C5F1F4FDFCF0F90DF91CF911F91DE
:1003A0000F91FF90EF90DF90CF90BF90AF909F9014
:1003B0008F907F906F900895AB01BC0187E791E02B
:1003C0000C94B013AF92BF92CF92DF92EF92FF9254
:1003D0000F931F93CF93DF9300D0CDB7DEB77B0190
:1003E0005901CDB6DEB69B01220F331F6DB77EB724
:1003F000621B730B0FB6F8947EBF0FBE6DBF0DB7B7
:100400001EB70F5F1F4FE82FF0E0EE0FFF1FE45FF6
:10041000FE4F0190F081E02DB701C80149835A8356
:100420000995F8014981A42F5A81B52FE00EF11EDC
:10043000EE15FF0519F081918D93FACF81E0F5015A
:1004400080830FB6F894DEBE0FBECDBE0F900F9026
:10045000DF91CF911F910F91FF90EF90DF90CF90A0
:10046000BF90AF900895CF92DF92EF92FF920F93DB
:100470001F93CF93DF93CDB7DEB7C354D1090FB627
:10048000F894DEBF0FBECDBFF82E8B01E52EC82E2F
:10049000D12CCC0CDD1CF601E65FFE4F0190F08103
:1004A000E02D22962FAF229723963FAF23972496D5
:1004B0004FAF24970995BC0122962FAD2297239622
:1004C0003FAD239724964FAD24978017910711F4E1
:1004D0005E2D38C08017910728F4E42FFE2D0E0FF3
:1004E0001F1F33C0C801880F991F8617970740F553
:1004F000F601E45FFE4FCB01B8010E943E17CB012D
:100500000197809FB001819F700D909F700D112405
:100510000190F081E02DCE01019622962FAF229717
:1005200023963FAF239724964FAF249709952296A1
:100530002FAD229723963FAD239724964FAD249756
:100540005E2DB8018F2D3EDF07C0E017F10711F0D7
:100550001192FBCFF9011082CD5BDF4F0FB6F894FB
:10056000DEBF0FBECDBFDF91CF911F910F91FF90E6
:10057000EF90DF90CF90089587E791E00C94680F9B
:100580002F923F924F925F926F927F928F929F92A3
:10059000AF92BF92CF92DF92EF92FF920F931F9391
:1005A000CF93DF93CDB7DEB762970FB6F894DEBF77
:1005B0000FBECDBF3A8B298B1A870987DA0125E058
:1005C000B695A7952A95E1F7FB01E150F04CEE0FA7
:1005D000FF1FEE0FFF1FE80FF91F80809180A280A0
:1005E000B380BB0C8808982C5401A617B7070CF0F1
:1005F000A2C00A0F1B1F188B0F876017710714F416
:10060000788B6F879D01E5E0220F331FEA95E1F7B4
:100610007A01E21AF30AFA82E9828D01000F111FB2
:10062000000F111FEF2839F4E988FA8860E070E0C4
:1006300040E050E08AC040E250E09A01E981FA814E
:100640002E1B3F0B3C832B837C01E00EF11EFE82B0
:10065000ED82F7014080518062807380E988FA88DA
:10066000F886EF82212C312C00E010E0A8010F5F0A
:100670001F4FF4E02F0E311C98012A0F3B1F73010E
:100680006201098004C0F694E794D794C7940A9451
:10069000D2F7EF85F8892E173F0704F52D813E81AB
:1006A000220D331DF9014080518062807380A301C7
:1006B00092010B8004C0220F331F441F551F0A9460
:1006C000D2F7C22AD32AE42AF52AEF81F885C1920B
:1006D000D192E192F192F887EF83C8CFE617F7073E
:1006E0005CF4EE0FFF1FEE0FFF1FE80FF91F808174
:1006F0009181A281B38102C0D501C401FA01EE0F3C
:10070000FF1FEE0FFF1F29893A892E0F3F1F0B8015
:1007100004C0880F991FAA1FBB1F0A94D2F7C82ACA
:10072000D92AEA2AFB2AF901C082D182E282F38225
:100730004F5F5F4F02C040E050E0BA01660F771F85
:10074000660F771F80E090E01DC09A012A0F3B1FC3
:10075000EF85F8892E173F0784F79B01200F311F83
:10076000280F391FF9014080518062807380F701A2
:1007700041925192619271927F014F5F5F4F6C5F26
:100780007F4FE3CF09851A85401751077CF4FC01A0
:10079000E60FF71FE988FA88EE0DFF1D808291822F
:1007A000A282B3824F5F5F4F0496ECCF62960FB682
:1007B000F894DEBF0FBECDBFDF91CF911F910F9197
:1007C000FF90EF90DF90CF90BF90AF909F908F9071
:1007D0007F906F905F904F903F902F9008952F9251
:1007E0003F924F925F926F927F928F929F92AF92C1
:1007F000BF92CF92DF92EF92FF920F931F93CF930E
:10080000DF93CDB7DEB7C554D1090FB6F894DEBF7C
:100810000FBECDBF7FAF6EAF22965FAF4EAF2297B8
:100820003E8B2D8B1701FB01E150F04CEE0FFF1FAB
:10083000EE0FFF1FE80FF91F408151816281738124
:10084000442777FD43955527662777274F8BD90196
:10085000A150B04CAA0FBB1FAA0FBB1F2296CEAC53
:10086000DFAC2297AC0DBD1D4D915D916D917C91DA
:10087000442777FD4395552766277727488F1A8B9E
:10088000098BD80120E030E0221533053CF41D929D
:100890001D921D921D922F5F3F4FF6CF9AA389A301
:1008A00018870F83C12CD12C7601C394C986DA86B0
:1008B000EB86FC8624961FAE1EAE24972496CEAC03
:1008C000DFAC2497EEADFFADCE16DF060CF0B8C15D
:1008D000E9A1FAA181919191A191B191FAA3E9A322
:1008E000FF89FF2301F1C984DA84EB84FC84C81AF0
:1008F000D90AEA0AFB0AD701C6010197A109B10981
:1009000021E0C984DA84EB84FC848C159D05AE0556
:10091000BF0508F020E0C22ED12CE12CF12CC986B5
:10092000DA86EB86FC866D01EE24FF24C98EDA8E12
:10093000EB8EFC8E9C01AD01442755272D8F3E8FF9
:100940004F8F58A3F1012496CEACDFAC2497EC195D
:10095000FD092696FFAFEEAF2697CD88DE88CE162E
:10096000DF0624F42696DFAECEAE26972296EEADB5
:10097000FFAD2297FDAFECAFCF80D884DC8ACB8A65
:10098000C12CD12C7601C394CD86DE86EF86F88A01
:10099000812C912C54011E821D82CD80DE802696F2
:1009A000EEACFFAC2697CE14DF040CF020C1EB892F
:1009B000FC89C080D180E280F380C982DA82EB8238
:1009C000FC82ECADFDADC190D190E190F190FDAF16
:1009D000ECAFF88DFF2311F12D853E854F855889A9
:1009E0002C193D094E095F0969017A0131E0C31AEA
:1009F000D108E108F10881E04D855E856F85788931
:100A0000C416D506E606F70608F080E0282F30E089
:100A100040E050E02D873E874F87588BA70166271F
:100A200077274BA35CA36DA37EA3EE24FF24A7012D
:100A30009601698D7A8D8B8D9C8D0E942F172B01CD
:100A40003C012BA13CA14DA15EA16D8D7E8D8F8DB2
:100A500098A10E942F176FA378A789A79AA76981E9
:100A60007A818B819C81680D791D8A1D9B1D69830C
:100A70007A838B839C83E1E0EBA7681579058A056F
:100A80009B0508F01BA6A70196016D8D7E8D8F8DAD
:100A900098A10E942F176B017C0129813A814B811B
:100AA0005C81260F371F481F591F29833A834B83C8
:100AB0005C83B201552744274CA75DA76EA77FA78B
:100AC00089819A81AB81BC81480F591F6A1F7B1FA6
:100AD00048AB59AB6AAB7BAB4FA158A569A57AA5CA
:100AE000332722272CAB3DAB4EAB5FAB68A979A96E
:100AF0008AA99BA9620F731F841F951F68AF79AFE6
:100B00008AAF9BAFEB89FC89619371938193919339
:100B1000FC8BEB8B2BA13CA14DA15EA1698D7A8D45
:100B20008B8D9C8D0E942F17DC01CB01FBA58F0FB5
:100B3000911DA11DB11D230166247724480E591E65
:100B40006A1E7B1E2FA138A549A55AA54A01AA24D1
:100B5000BB24840C951CA61CB71C81E090E0A0E08F
:100B6000B0E049815A816B817C814C155D056E0531
:100B70007F0518F080E090E0DC01880E991EAA1E27
:100B8000BB1E81E090E0A0E0B0E0C8A8D9A8EAA828
:100B9000FBA82CA53DA54EA55FA5C216D306E4066D
:100BA000F50618F080E090E0DC01880D991DAA1D83
:100BB000BB1D812C912C54018394C8ACD9ACEAACF8
:100BC000FBAC2CA93DA94EA95FA9C216D306E40629
:100BD000F50618F0812C912C5401880E991EAA1E3E
:100BE000BB1EED81FE813196FE83ED83D6CEC7011B
:100BF000F7FE02C080E090E02496EEADFFAD2497B2
:100C00008E0F9F1F8215930564F4880F991F880F1C
:100C1000991FD801A80FB91F8D929D92AD92BC92D9
:100C200013972496EEADFFAD249731962496FFAF2F
:100C3000EEAF2497EF81F8853496F887EF833ECEA8
:100C4000FF89C88CFC1571F141E050E060E070E074
:100C500020E030E0221533052CF5E989FA898081FE
:100C60009181A281B3816A017B01C81AD90AEA0A7B
:100C7000FB0AD701C6010197A109B109819391939C
:100C8000A193B193FA8BE98BE1E084179507A6074E
:100C9000B70708F0E0E04E2F50E060E070E02F5F13
:100CA0003F4FD8CFCB5BDF4F0FB6F894DEBF0FBE00
:100CB000CDBFDF91CF911F910F91FF90EF90DF900B
:100CC000CF90BF90AF909F908F907F906F905F90EC
:100CD0004F903F902F9008952F923F924F925F92A6
:100CE0006F927F928F929F92AF92BF92CF92DF923C
:100CF000EF92FF920F931F93CF93DF9379011B0124
:100D0000DA01C0E0D0E040E050E0BA01CE15DF05E6
:100D1000ACF5FC0181909190A190B190CF01F101CF
:100D200001911191219131911F0124013501401A46
:100D3000510A620A730A93018201041B150B260BE8
:100D4000370B0D931D932D933D9366246394712C63
:100D5000C12CD12C452B462B472B31F008151905FA
:100D60002A053B0538F405C080169106A206B30695
:100D700008F0612CA301B6012196C8CFDF91CF9175
:100D80001F910F91FF90EF90DF90CF90BF90AF90A9
:100D90009F908F907F906F905F904F903F902F909B
:100DA00008958F929F92AF92BF92CF92DF92EF926F
:100DB000FF921F93CF93DF93D901621773070CF44F
:100DC000DB01FC01EA01E12CF12CEA16FB0664F4DC
:100DD00081909190A190B19089929992A992B992A3
:100DE0001FEFE11AF10AF1CF621773073CF561506A
:100DF000704C660F771F660F771FFC01E60FF71F19
:100E0000C080D180E280F380FF0CCC08DC2C76011E
:100E1000BD01660F771F660F771F80E090E0A21775
:100E2000B30764F4FC01E60FF71FE40FF51FC0825F
:100E3000D182E282F38211960496F1CFDF91CF91B5
:100E40001F91FF90EF90DF90CF90BF90AF909F9059
:100E50008F9008952F923F924F925F926F927F9260
:100E60008F929F92AF92BF92CF92DF92EF92FF92BA
:100E70000F931F93CF93DF93CDB7DEB72E970FB6A7
:100E8000F894DEBF0FBECDBFDA01E5E0B695A795B9
:100E9000EA95E1F7FB01E150F04CEE0FFF1FEE0F7A
:100EA000FF1FE80FF91F80809180A280B380BB0CE8
:100EB0008808982C54013D010A171B070CF43801CF
:100EC0007901C12CD12CC614D70454F4F701119226
:100ED0001192119211927F01FFEFCF1ADF0AF3CF27
:100EE000F30177FE02C0E0E0F0E0A017B1070CF0DC
:100EF000ABC06D01689414F8CC0CDD1C1694E1F7BE
:100F00007A01EC18FD08FC86EB866A0F7B1F06173A
:100F100017070CF4B8017B01EE1AFF0A6F01CC0C25
:100F2000DD1CCC0CDD1C4B855C85452B29F460E079
:100F300070E040E050E090C040E250E0BA01AB8584
:100F4000BC856A1B7B0B7A8369831C011E861D8608
:100F5000412C512C32011A86198689859A858E1565
:100F60009F050CF043C0B301A201098004C076952F
:100F70006795579547950A94D2F74B835C836D83A9
:100F80007E83D1014D905D906D907D901D014D85CA
:100F90005E854C0D5D1DB901640F751F78876F83E9
:100FA000B301A2010B8404C0440F551F661F771FB5
:100FB0000A94D2F78B819C81AD81BE81482B592B3D
:100FC0006A2B7B2BAF81B8854D935D936D937C939A
:100FD000139749855A854F5F5F4F5A8749876D85BB
:100FE0007E856C5F7F4F7E876D87B7CFF7FE02C02F
:100FF000E12CF12CEE0DFF1DE017F1072CF5DF01C0
:10100000AA0FBB1FAA0FBB1F7D01E20EF31E0980B2
:1010100004C076946794579447940A94D2F7B50124
:10102000A4010B8404C0440F551F661F771F0A9448
:10103000D2F7442A552A662A772AD7014D925D9223
:101040006D927C9213973196AF01440F551F440F58
:10105000551F80E090E01FC04E155F05ACF4DC0129
:101060004D905D906D907D90CD01DB01AC0DBD1D6F
:10107000A20FB31F4D925D926D927C9213974F5FBA
:101080005F4F6C5F7F4FE8CFF7FE02C0E12CF12C81
:10109000EE0DFF1DD9CFE017F1076CF4DC01A40FB2
:1010A000B51FA20FB31F8D929D92AD92BC92139764
:1010B00031960496F0CF2E960FB6F894DEBF0FBE91
:1010C000CDBFDF91CF911F910F91FF90EF90DF90F7
:1010D000CF90BF90AF909F908F907F906F905F90D8
:1010E0004F903F902F900895FA01619371938193EF
:1010F0009193DC01CB01BB0F880B982FDC0141E001
:1011000050E0421753073CF481939193A193B1931C
:101110004F5F5F4FF6CF08954F925F926F927F922D
:101120008F929F92AF92BF92CF92DF92EF92FF92F7
:101130000F931F93CF93DF9379012B01DA01C0E066
:10114000D0E040E050E0BA01CE15DF058CF5FC019F
:1011500081909190A190B190CF01F20101911191F4
:10116000219131912F01080D191D2A1D3B1D040FDE
:10117000151F261F371F0D931D932D933D93662436
:101180006394712CC12CD12C452B462B472B31F06D
:1011900080169106A206B30638F405C00815190595
:1011A0002A053B0508F0612CA301B6012196CCCF9E
:1011B000DF91CF911F910F91FF90EF90DF90CF9033
:1011C000BF90AF909F908F907F906F905F904F9067
:1011D00008958F929F92AF92BF92CF92DF92EF923B
:1011E000FF929A012150304C220F331F220F331FE0
:1011F000FC01E20FF31FC080D180E280F380CC2499
:10120000DD24EE24E0E8FE22FB01E20FF31F8080E4
:101210009180A280B38088249924AA24E0E8BE2289
:10122000C814D904EA04FB0459F52C5F3F4FA0E031
:10123000B0E0141615060CF541505109FD01E20FFE
:10124000F31F3497E80FF91F80809180A280B3804C
:101250001497FD01E20FF31FE60FF71FC080D18046
:10126000E280F3808C149D04AE04BF0411F3C81413
:10127000D904EA04FB0458F007C080E090E009C0FC
:10128000CD28CE28CF2819F08FEF9FEF02C081E044
:1012900090E0FF90EF90DF90CF90BF90AF909F9045
:1012A0008F90089596DF892F8095881F8827881F43
:1012B00008958FDF21E0181619060CF420E0822F24
:1012C00008952F923F924F925F926F927F928F92EA
:1012D0009F92AF92BF92CF92DF92EF92FF920F93C5
:1012E0001F93CF93DF93CDB7DEB768970FB6F8940F
:1012F000DEBF0FBECDBF6D837E838F8398872901AC
:101300003A01170197FF0BC06B017C01F094E09448
:10131000D094C094C11CD11CE11CF11C04C0CD8030
:10132000DE80EF80F88477FE08C088249924540179
:1013300084189508A608B70802C053014201970116
:101340004427552729873A874B875C87EE24FF245B
:10135000C501AA27BB278D879E87AF87B88BAA2494
:10136000BB24A501940169857A858B859C850E94A3
:101370002F17698B7A8B8B8B9C8B2D853E854F85A8
:101380005889C701B6010E942F176D8B7E8B8F8BFA
:10139000988FA5019401C701B6010E942F172D89CE
:1013A0003E894F89588D7901DD24CC2446015701AF
:1013B000860E971EA81EB91EF1E0E0E030E020E0A6
:1013C00086169706A806B90608F0F0E0F983EA83C6
:1013D0003B832C8389899A89AB89BC897C01DD2474
:1013E000CC24C80CD91CEA1CFB1CC814D904EA0480
:1013F000FB0460F429813A814B815C812F5F3F4F70
:101400004F4F5F4F29833A834B835C832D893E89FD
:101410004F89588DCA01AA27BB2729893A894B8948
:101420005C894A01AA24BB24880E991EAA1EBB1EF1
:101430002D853E854F85588969857A858B859C8564
:101440000E942F17860E971EA81EB91E89819A81A9
:10145000AB81BC81880E991EAA1EBB1E2D813E81C8
:101460004F815885211531054105510579F1411408
:1014700051046104710451F191E01216130614062F
:1014800015060CF090E081E01414150416041704FE
:101490000CF080E09817D1F0F094E094D094C094D0
:1014A000C11CD11CE11CF11CC114D104E104F104E4
:1014B00029F080949094A094B09408C0B094A09423
:1014C00090948094811C911CA11CB11CD8018D9218
:1014D0009D92AD92BC921397F101C082D182E282BB
:1014E000F38268960FB6F894DEBF0FBECDBFDF91D2
:1014F000CF911F910F91FF90EF90DF90CF90BF9011
:10150000AF909F908F907F906F905F904F903F90A3
:101510002F9008958F929F92AF92BF92EF92FF9279
:101520000F931F93CF93DF93CDB7DEB728970FB6F6
:10153000F894DEBF0FBECDBF470158018E010F5F8B
:101540001F4F78010C5F1F4FBCDE20E230E02819EE
:1015500039098D819E81AF81B885AC01BD0104C080
:10156000440F551F661F771F2A95D2F789819A81EC
:10157000AB81BC8104C0B695A795979587958A9451
:10158000D2F78A019B01082B192B2A2B3B2BC9016F
:10159000B80128960FB6F894DEBF0FBECDBFDF911D
:1015A000CF911F910F91FF90EF90BF90AF909F90C0
:1015B0008F9008958F929F92AF92BF92CF92EF92A9
:1015C000FF920F931F93CF93DF93CDB7DEB7E697CC
:1015D0000FB6F894DEBF0FBECDBF6091C702709109
:1015E000C8029E012B5C3F4FAE014F5C5F4F80E015
:1015F0000E9433028DA9882309F44EC288E0EEE0F0
:10160000F1E0ADE6B2E001900D928A95E1F78091AC
:10161000260190912701A0912801B09129018DA761
:101620009EA7AFA7B8AB89A99AA9ABA9BCA989A75E
:101630009AA7ABA7BCA752E0E52EF12C8E010F5D57
:101640001F4F21E030E0AE01475D5F4F61E070E089
:10165000CE018D96C4D888E0EFE3F1E0DE01599623
:1016600001900D928A95E1F764E0E62EF12C05E5F4
:1016700012E022E030E0AE01475E5F4F62E070E0D2
:10168000CE018196ACD804E010E025E432E046ECCF
:1016900053E064E070E085E592E00E94C00222E041
:1016A00030E04DE752E064E070E085E492E079DB01
:1016B0006091CF027091D0028091D1029091D202BC
:1016C00022E030E0AE01475E5F4F0EDD02E010E049
:1016D0009E012F5D3F4F40E250E062E070E0CE019E
:1016E0004996B8DB22E030E045E752E0BE016F5D8D
:1016F0007F4F8DE792E0F0DA05E312E022E030E080
:1017000045E752E062E070E08DE692E068D804E0E0
:1017100010E025E232E04FE054E064E070E085E361
:1017200092E00E94C0026091250270912602809191
:101730002702909128021EE1E12EF12C00E010E03A
:101740002FE135E84BEE51E5E5DE4B015C01809180
:101750001E0190911F01A0912001B09121018DA740
:101760009EA7AFA7B8AB89A99AA9ABA9BCA989A71D
:101770009AA7ABA7BCA7F2E0EF2EF12C0DE712E081
:1017800021E030E0AE01475D5F4F61E070E0CE01E7
:101790008D9625D802E010E025E732E042E050E0E7
:1017A00062E070E08DE792E00E94C0028091CB027F
:1017B0009091CC02A091CD02B091CE028DA79EA7B0
:1017C000AFA7B8AB8FE195E8ABEEB1E589A79AA7D3
:1017D000ABA7BCA78E010F5D1F4F21E030E0AE012B
:1017E000475D5F4F61E070E0CE018D960E94EF0390
:1017F00002E010E02DE732E045E050E062E070E00A
:10180000CE0181960E94C00222E030E04DE652E017
:101810006DE772E085E792E07FDC22E030E04DE7A3
:1018200052E0C501B40160DC25E732E040E250E05F
:1018300062E070E08DE792E00DDB22E030E045E60B
:1018400052E065E772E08DE692E066DC60912A0185
:1018500070912B0180912C0190912D0122E030E0BC
:1018600045E752E041DC2DE632E040E250E062E044
:1018700070E085E792E0EEDA42E050E06DE672E07B
:1018800085E692E00FDD882349F080912A0190914E
:101890002B01A0912C01B0912D013EC060912E0131
:1018A00070912F01809130019091310122E030E060
:1018B0004DE752E019DC02E010E025E732E040E2BB
:1018C00050E062E070E08DE792E0C4DA42E050E080
:1018D00065E772E085E692E0ECDC882349F08091D0
:1018E0002E0190912F01A0913001B091310114C0CF
:1018F00002E010E02DE732E040E250E062E070E00C
:1019000085E692E00E94C00280917D0290917E0265
:10191000A0917F02B091800280938502909386020D
:10192000A0938702B09388028091220190912301B5
:10193000A0912401B09125018DA79EA7AFA7B8ABB8
:1019400089A99AA9ABA9BCA989A79AA7ABA7BCA743
:1019500022E0E22EF12C8E01075E1F4F21E030E0E5
:10196000AE01475D5F4F61E070E0CE018D960E9451
:10197000EF0302E010E09E012F5D3F4F41E250E097
:1019800062E070E0CE0149960E94C00288E0E6E184
:10199000F1E0DE01599601900D928A95E1F7609190
:1019A000850270918602809187029091880222E0E0
:1019B00030E0AE014F5F5F4F97DB9E01275F3F4FE7
:1019C00040E250E062E070E0CE01019643DA22E0AE
:1019D00030E0AE014F5E5F4F65E672E0CE010996E2
:1019E0007BD934E0E32EF12C05E412E022E030E074
:1019F000AE014F5E5F4F62E070E0CE0149960E94FB
:101A0000EF0304E010E025E332E041E650E064E05B
:101A100070E085E492E00E94C00249A15AA16BA146
:101A20007CA18091350290913602A0913702B0914D
:101A30003802840F951FA61FB71F44E0B595A795E0
:101A4000979587954A95D1F74091CB025091CC025A
:101A50006091CD027091CE02840F951FA61FB71F13
:101A60008093CB029093CC02A093CD02B093CE0290
:101A70008091CF029091D002A091D102B091D20278
:101A8000880E991EAA1EBB1E8092CF029092D00291
:101A9000A092D102B092D2028091850290918602EA
:101AA000A0918702B091880289AB9AABABABBCAB7B
:101AB0006091BF027091C0028091C1029091C202F8
:101AC0000E94E615C62E6091B7027091B80280910F
:101AD000B9029091BA020E94E615E62E6091BB020F
:101AE0007091BC028091BD029091BE020E94E615E9
:101AF000062F6091B3027091B4028091B50290916B
:101B0000B6020E94E615262F6091AF027091B002D6
:101B10008091B1029091B2022EAB0E94E615862F01
:101B2000812C912C92E0A92E2EA941E050E0BE011B
:101B30006F5C7F4F0E948300E6960FB6F894DEBF7D
:101B40000FBECDBFDF91CF911F910F91FF90EF900E
:101B5000CF90BF90AF909F908F90089510928A027F
:101B60001092890284E6E5E2F2E0DF011D928A9597
:101B7000E9F7EBE8F2E088E4DF011D928A95E9F7E6
:101B800081E090E0A0E0B0E080AF91AFA2AFB3AF52
:101B900024E030E03093CA022093C90235AF24AF6D
:101BA00080839183A283B38380E090E0A0E8B0E4D7
:101BB00080A791A7A2A7B3A780E090E0A0EAB0E435
:101BC00084A795A7A6A7B7A7EEE0F1E084A195A109
:101BD000A6A1B7A18093CB029093CC02A093CD0293
:101BE000B093CE0280A591A5A2A5B3A58093CF0204
:101BF0009093D002A093D102B093D2020895809125
:101C0000C3029091C402A091C502B091C60201978F
:101C1000A105B10561F482E090E0A0E0B0E080931E
:101C2000C3029093C402A093C502B093C6028091F0
:101C30008B0290918C02A0918D02B0918E0201973F
:101C4000A105B10561F482E090E0A0E0B0E08093EE
:101C50008B0290938C02A0938D02B0938E02089514
:101C600008951F920F920FB60F9211242F933F9356
:101C70004F935F936F937F938F939F93AF93BF9394
:101C8000EF93FF93E0913A01F0913B010995FF91A9
:101C9000EF91BF91AF919F918F917F916F915F91E4
:101CA0004F913F912F910F900FBE0F901F9018955D
:101CB0001F920F920FB60F9211242F933F934F93C1
:101CC0005F936F937F938F939F93AF93BF93EF93A4
:101CD000FF93E0913C01F0913D010995FF91EF9157
:101CE000BF91AF919F918F917F916F915F914F9134
:101CF0003F912F910F900FBE0F901F9018951F923C
:101D00000F920FB60F9211242F933F938F939F93AF
:101D1000AF93BF9380916F0190917001A091710179
:101D2000B091720130916E0123E0230F2D3720F422
:101D30000196A11DB11D05C026E8230F0296A11D25
:101D4000B11D20936E0180936F0190937001A09359
:101D50007101B09372018091730190917401A0910F
:101D60007501B09176010196A11DB11D809373019B
:101D700090937401A0937501B0937601BF91AF91D8
:101D80009F918F913F912F910F900FBE0F901F90B9
:101D900018952FB7F89460916F0170917001809140
:101DA0007101909172012FBF0895789484B582607B
:101DB00084BD84B5816084BD85B5826085BD85B5EF
:101DC000816085BDEEE6F0E0808181608083E1E89E
:101DD000F0E01082808182608083808181608083D6
:101DE000E0E8F0E0808181608083E1EBF0E08081D9
:101DF00084608083E0EBF0E0808181608083EAE7AB
:101E0000F0E0808184608083808182608083808133
:101E1000816080838081806880831092C1000895F2
:101E2000833081F028F4813099F08230A1F0089558
:101E30008730A9F08830B9F08430D1F480918000E7
:101E40008F7D03C0809180008F77809380000895FC
:101E500084B58F7702C084B58F7D84BD089580914D
:101E6000B0008F7703C08091B0008F7D8093B00069
:101E700008951F93CF93DF93282F30E0F901E8599D
:101E8000FF4F8491F901E458FF4FD491F901E057D5
:101E9000FF4FC491CC23C1F0162F8111C1DFEC2F6D
:101EA000F0E0EE0FFF1FEC55FF4FA591B4918FB7F7
:101EB000F894111105C09C91ED2FE095E92302C023
:101EC000EC91ED2BEC938FBFDF91CF911F91089593
:101ED000FC01918D228D892F90E0805C9F4F821BA9
:101EE00091098F7399270895FC01918D828D981720
:101EF00031F0828DE80FF11D858D90E008958FEF10
:101F00009FEF0895FC01918D828D981761F0828D6D
:101F1000DF01A80FB11D5D968C91928D9F5F9F731D
:101F2000928F90E008958FEF9FEF0895FC01848DCC
:101F3000DF01A80FB11DA35ABF4F2C91848D90E0F3
:101F400001968F739927848FA689B7892C93A089CE
:101F5000B1898C9180648C93938D848D981306C085
:101F60000288F389E02D80818F7D80830895CF934F
:101F7000DF93EC01888D8823C1F0EA89FB89808199
:101F800085FD05C0A889B9898C9186FD0EC00FB664
:101F900007FCF5CF808185FFF2CFA889B9898C91A4
:101FA00085FFEDCFCE01C2DFE8CFDF91CF9108955D
:101FB000EF92FF920F931F93CF93DF93EC0181E099
:101FC000888F9B8D8C8D981305C0E889F989808155
:101FD00085FD23C0F62E0B8D10E00F5F1F4F0F7392
:101FE0001127E02E8C8DE8120BC00FB607FCFACF3C
:101FF000E889F989808185FFF5CFCE0197DFF2CF9F
:102000008B8DFE01E80FF11DE35AFF4FF0820B8F1D
:10201000EA89FB898081806207C0EE89FF8960833D
:10202000E889F98980818064808381E090E0DF9194
:10203000CF911F910F91FF90EF900895CF92DF9273
:10204000EF92FF921F93CF93DF93EC016A017B0124
:10205000122FE889F98982E080834115514E61058C
:102060007105A9F060E079E08DE390E0A7019601A9
:1020700019D7DA01C9010197A109B109B695A79548
:1020800097958795AC01411580E15807A0F0E88944
:10209000F989108260E874E88EE190E0A70196016A
:1020A00001D7BA01A9014150510961097109769519
:1020B000679557954795EC85FD855083EE85FF859F
:1020C0004083188EEC89FD891083EA89FB89808121
:1020D00080618083EA89FB89808188608083EA89C6
:1020E000FB89808180688083EA89FB8980818F7D7C
:1020F0008083DF91CF911F91FF90EF90DF90CF9081
:1021000008951F920F920FB60F9211242F938F9361
:102110009F93EF93FF93E0918701F0918801808175
:10212000E0918D01F0918E0182FD12C0908180912D
:1021300090018F5F8F7320919101821751F0E09190
:102140009001F0E0E958FE4F958F8093900101C017
:102150008081FF91EF919F918F912F910F900FBEF2
:102160000F901F9018951F920F920FB60F92112487
:102170002F933F934F935F936F937F938F939F938F
:10218000AF93BF93EF93FF9387E791E0CFDEFF918B
:10219000EF91BF91AF919F918F917F916F915F91DF
:1021A0004F913F912F910F900FBE0F901F90189558
:1021B000E7E7F1E01382128288EE93E0A0E0B0E05E
:1021C00084839583A683B7838DE491E09183808394
:1021D00085EC90E09587848784EC90E097878687EC
:1021E00080EC90E0918B808B81EC90E0938B828BE4
:1021F00082EC90E0958B848B86EC90E0978B868BBD
:10220000118E128E138E148E08958F929F92AF921C
:10221000BF92CF92DF92EF92FF920F931F93CF93D3
:10222000DF937C018B016C0182E0C80ED11C470159
:10223000E5E08E0E911CC0E0D0E0F60161916F01E7
:102240004AE050E0C8013BD15C016EE2C80168D0B1
:102250008A0D9B1DC80FD91FC814D90471F74AE015
:1022600050E0F7016581C8012AD18C0F9D1FDF91D5
:10227000CF911F910F91FF90EF90DF90CF90BF9083
:10228000AF909F908F900895E4E1F2E08DE591E0AA
:102290009183808312821382148215820895CF92D3
:1022A000DF92EF92FF920F931F93CF93DF936C0116
:1022B0007A018B01C0E0D0E0CE15DF0589F0D801AE
:1022C0006D918D01D601ED91FC910190F081E02D91
:1022D000C6010995892B11F47E0102C02196ECCF2D
:1022E000C701DF91CF911F910F91FF90EF90DF9089
:1022F000CF9008956115710579F0FB0101900020E0
:10230000E9F73197AF01461B570BDC01ED91FC91CA
:102310000280F381E02D099480E090E00895EACFF7
:10232000DC01ED91FC910190F081E02D09946FE5C5
:1023300071E0E0CF4F925F926F927F92EF92FF92A7
:102340000F931F93CF93DF93CDB7DEB7A1970FB64F
:10235000F894DEBF0FBECDBF7C01FA01CB0119A2FC
:10236000223008F42AE08E010F5D1F4F422E512CBF
:10237000612C712CBF01A301920194D5F901CA010E
:10238000015011096A3014F4605D01C0695CD80124
:102390006C93232B242B252B69F7B801C701AADFE7
:1023A000A1960FB6F894DEBF0FBECDBFDF91CF91DF
:1023B0001F910F91FF90EF907F906F905F904F90E3
:1023C0000895CF92DF92EF92FF920F931F93CF93D6
:1023D000DF93EC016A017B012115310579F4E88175
:1023E000F9810190F081E02D642FDF91CF911F9151
:1023F0000F91FF90EF90DF90CF9009942A30310534
:10240000D9F477FF18C06DE28BDF8C014427552784
:10241000BA014C195D096E097F092AE0CE018ADFF5
:10242000800F911FDF91CF911F910F91FF90EF903F
:10243000DF90CF9008952AE0B701A601CE01DF9189
:10244000CF911F910F91FF90EF90DF90CF9072CFBF
:102450009A01AB01770F660B770BB3CF0F931F93E6
:10246000CF93DF93EC019A01AB01770F660B770BEB
:10247000A8DF8C01CE015BDF800F911FDF91CF9130
:102480001F910F9108950F931F93CF93DF93EC014A
:1024900098DF8C01CE014BDF800F911FDF91CF9130
:1024A0001F910F9108952115310541F4DC01ED9143
:1024B000FC910190F081E02D642F09943BCF9A01AB
:1024C000462F50E060E070E0EECF0F931F93CF9364
:1024D000DF93EC019A01462F50E060E070E0E3DF0B
:1024E0008C01CE0124DF800F911FDF91CF911F91CE
:1024F0000F9108959A01AB0160E070E0D4CF0F9383
:102500001F93CF93DF93EC019A01AB0160E070E081
:10251000CADF8C01CE010BDF800F911FDF91CF91BD
:102520001F910F9108950F931F93CF93DF93EC01A9
:10253000BADF8C01CE01FBDE800F911FDF91CF91BE
:102540001F910F9108954F925F926F927F928F9299
:102550009F92AF92BF92CF92DF92EF92FF92CF9372
:10256000DF93EC016A017B01B22E9A01AB01C70136
:10257000B60171D4882319F062E671E024C0260107
:102580003701E89477F82FEF3FEF4FE75FE7C3019C
:10259000B20161D481110CC02FEF3FEF4FE75FE72D
:1025A000C301B201A7D218161CF466E671E00BC095
:1025B0002FEF3FEF4FE75FE4C701B601E5D31816F1
:1025C00094F46AE671E0CE01DF91CF91FF90EF9035
:1025D000DF90CF90BF90AF909F908F907F906F9043
:1025E0005F904F9087CE2FEF3FEF4FE75FECC70133
:1025F000B60180D287FDE5CF20E030E0A901C70118
:10260000B60178D287FF09C06DE2CE0189DE4C01A8
:10261000F7FAF094F7F8F09402C0812C912CA12CD9
:1026200060E070E080E09FE3AB1439F020E030E040
:1026300040E251E463D2A394F7CF9B01AC01C70100
:10264000B601F4D12B013C01C1D26B017C01EAD26D
:102650009B01AC01C301B201E8D12B013C012AE08E
:10266000B701A601CE0166DE7C01E80CF91CBB2097
:1026700029F06EE2CE0154DEE80EF91EDB2CDD20DF
:1026800001F120E030E040E251E4C301B20180D327
:102690002B013C019BD24B01A12CB12C2AE0B501AE
:1026A000A401CE0147DEE80EF91EC501B401BAD27D
:1026B0009B01AC01C301B201B8D12B013C01DA94FA
:1026C000DECFC701DF91CF91FF90EF90DF90CF90E9
:1026D000BF90AF909F908F907F906F905F904F9042
:1026E000089531CF0F931F93CF93DF93EC012BDF2E
:1026F0008C01CE011CDE800F911FDF91CF911F91C5
:102700000F9108950F931F93CF93DF93EC0141DB5B
:10271000688779878A879B87E881F9810680F781B6
:10272000E02DCE01099597FF16C033DB088519858A
:102730002A853B85DC01CB01801B910BA20BB30BDF
:102740000C811D812E813F8180179107A207B3075D
:1027500018F38FEF9FEFDF91CF911F910F910895A5
:10276000CF92DF92EF92FF920F931F93CF93DF935D
:102770006C017A018B01C0E0D0E0CE15DF0559F085
:10278000C601C0DF97FF02C07E0105C0F80181933A
:102790008F012196F2CFC701DF91CF911F910F9149
:1027A000FF90EF90DF90CF900895813039F018F0CE
:1027B000823051F0089510926E00089580916F005C
:1027C0008D7F80936F000895809170008D7F80933E
:1027D000700081E08093B0008091B100887F8460B8
:1027E0008093B1001092B3000895CF93C82F8091C9
:1027F0003E018C1307C0EEEAF0E0E4918FEF809386
:102800003E0101C0EFEF8E2FD0DF60E08C2FCF9123
:1028100030CB1F920F920FB60F9211242F933F933C
:102820004F935F936F937F938F939F93AF93BF93D8
:10283000EF93FF9380911D0290911E02A0911F02C1
:10284000B0912002892B8A2B8B2B51F180911A0297
:10285000E0911B02F0911C02908189278083809176
:102860001D0290911E02A0911F02B0912002181625
:1028700019061A061B06BCF480911D0290911E02D7
:10288000A0911F02B09120020197A109B109809384
:102890001D0290931E02A0931F02B093200203C05A
:1028A00080913E01A2DFFF91EF91BF91AF919F9187
:1028B0008F917F916F915F914F913F912F910F90E9
:1028C0000FBE0F901F90189540E855E260E070E051
:1028D00080E090E000C026E087E791E0AFCB1F9258
:1028E0000F920FB60F9211242F933F934F935F9344
:1028F0006F937F938F939F93AF93BF93EF93FF93C8
:102900008FE89DEF909385008093840032D0FF91F3
:10291000EF91BF91AF919F918F917F916F915F9157
:102920004F913F912F910F900FBE0F901F901895D0
:102930008FE89DEF9093850080938400AFE6B0E030
:102940008C918E7F8C93E0E8F0E080818C7F808397
:10295000E1E8F0E08081877E8083808184608083ED
:1029600080818C7F80838C9181608C93089581E03D
:1029700008958091220291E0980F9093220288237B
:1029800039F021E030E0309324022093230207C085
:1029900078940E94DA0AF894809122028150809300
:1029A000220208950F931F93CF93DF931F92CDB709
:1029B000DEB781E08983F9D987DF00914701109163
:1029C0004801F80111821082C9D8B2DF81E0F80114
:1029D00020813181232B09F080E0898378947894D9
:1029E00089818823C1F081E0F80120813181232B86
:1029F00009F480E0809321029091210281E09111FD
:102A000080E089838981882311F0B1DF02C080E0F2
:102A100090E08983E5CFF3D8F89480E090E00F90C0
:102A2000DF91CF911F910F9108955058BB27AA278E
:102A30000ED070C161D130F066D120F031F49F3FEB
:102A400011F41EF456C10EF4E095E7FB4CC1E92FDA
:102A500072D180F3BA17620773078407950718F0DD
:102A600071F49EF58AC10EF4E0950B2EBA2FA02DBD
:102A70000B01B90190010C01CA01A0011124FF272B
:102A8000591B99F0593F50F4503E68F11A16F04026
:102A9000A22F232F342F4427585FF3CF4695379525
:102AA0002795A795F0405395C9F77EF41F16BA0BEA
:102AB000620B730B840BBAF09150A1F0FF0FBB1F98
:102AC000661F771F881FC2F70EC0BA0F621F731FE1
:102AD000841F48F4879577956795B795F7959E3F3E
:102AE00008F0B3CF9395880F08F09927EE0F9795CC
:102AF00087950895D4D008F481E008950CD00AC1D8
:102B000002D140F0F9D030F021F45F3F19F0EBC072
:102B1000511134C1EEC00FD198F39923C9F3552355
:102B2000B1F3951B550BBB27AA27621773078407C0
:102B300038F09F5F5F4F220F331F441FAA1FA9F376
:102B400033D00E2E3AF0E0E830D091505040E69568
:102B5000001CCAF729D0FE2F27D0660F771F881FC9
:102B6000BB1F261737074807AB07B0E809F0BB0BB8
:102B7000802DBF01FF2793585F4F2AF09E3F5105DC
:102B800068F0B1C0FBC05F3FECF3983EDCF3869584
:102B900077956795B795F7959F5FC9F7880F911D52
:102BA0009695879597F90895E1E0660F771F881F3E
:102BB000BB1F621773078407BA0720F0621B730BF1
:102BC000840BBA0BEE1F88F7E0950895BCD088F00F
:102BD0009F5790F0B92F9927B751A0F0D1F0660F09
:102BE000771F881F991F1AF0BA95C9F712C0B13024
:102BF00081F0C3D0B1E00895C0C0672F782F882737
:102C0000B85F39F0B93FCCF3869577956795B39562
:102C1000D9F73EF490958095709561957F4F8F4FD1
:102C20009F4F0895E89409C097FB3EF490958095D6
:102C3000709561957F4F8F4F9F4F9923A9F0F92F82
:102C400096E9BB279395F695879577956795B79500
:102C5000F111F8CFFAF4BB0F11F460FF1BC06F5FE6
:102C60007F4F8F4F9F4F16C0882311F096E911C0F8
:102C7000772321F09EE8872F762F05C0662371F019
:102C800096E8862F70E060E02AF09A95660F771F2D
:102C9000881FDAF7880F9695879597F90895990F09
:102CA0000008550FAA0BE0E8FEEF16161706E80716
:102CB000F907C0F012161306E407F50798F0621B37
:102CC000730B840B950B39F40A2661F0232B242B0C
:102CD000252B21F408950A2609F4A140A6958FEF2B
:102CE000811D811D089597F99F6780E870E060E07D
:102CF00008959FEF80EC089500240A941616170695
:102D000018060906089500240A94121613061406DC
:102D100005060895092E0394000C11F4882352F03F
:102D2000BB0F40F4BF2B11F460FF04C06F5F7F4FF7
:102D30008F4F9F4F089557FD9058440F551F59F0DE
:102D40005F3F71F04795880F97FB991F61F09F3F98
:102D500079F087950895121613061406551FF2CFC1
:102D60004695F1DF08C0161617061806991FF1CF11
:102D700086957105610508940895E894BB27662738
:102D80007727CB0197F908958ADF08F48FEF08952C
:102D90000BD0C0CFB1DF28F0B6DF18F0952309F0D3
:102DA000A2CFA7CF1124EACFC6DFA0F3959FD1F31E
:102DB000950F50E0551F629FF001729FBB27F00DE9
:102DC000B11D639FAA27F00DB11DAA1F649F66273E
:102DD000B00DA11D661F829F2227B00DA11D621F8D
:102DE000739FB00DA11D621F839FA00D611D221F47
:102DF000749F3327A00D611D231F849F600D211D2B
:102E0000822F762F6A2F11249F5750408AF0E1F0CD
:102E100088234AF0EE0FFF1FBB1F661F771F881F16
:102E200091505040A9F79E3F510570F05CCFA6CF5E
:102E30005F3FECF3983EDCF3869577956795B79501
:102E4000F795E7959F5FC1F7FE2B880F911D96952B
:102E5000879597F9089523DF880B990B0895DB0177
:102E60008F939F9341D0BF91AF91A29F800D911DF1
:102E7000A39F900DB29F900D11240895AA1BBB1B18
:102E800051E107C0AA1FBB1FA617B70710F0A61B6A
:102E9000B70B881F991F5A95A9F780959095BC018B
:102EA000CD010895A1E21A2EAA1BBB1BFD010DC086
:102EB000AA1FBB1FEE1FFF1FA217B307E407F507EA
:102EC00020F0A21BB30BE40BF50B661F771F881FC6
:102ED000991F1A9469F760957095809590959B015C
:102EE000AC01BD01CF0108950FD0A59F900DB49FF7
:102EF000900DA49F800D911D11240895EE0FFF1FCA
:102F00000590F491E02D0994A29FB001B39FC001F8
:102F1000A39F700D811D1124911DB29F700D811D05
:0A2F20001124911D0895F894FFCFCD
:102F2A000000D302800001000000BC02DC010000A6
:102F3A0000000000000000EC51B81E85EB516666E7
:102F4A0066661F85EB5100000000A08601006079CB
:102F5A00FEFF0000000000000000300E300EFF19D6
:102F6A0000000000000000890200000000D80F4F96
:102F7A0011680F820F740FB70F0000000005110DC2
:0E2F8A000A006E616E00696E66006F7666006A
:00000001FF
