:100000000CC1000093C10000BCC10000E5C10000AC
:100010000EC2000037C2000060C2000089C20000AA
:10002000B2C200002BC1000029C1000027C100009E
:1000300025C100000C94000921C100001FC100006F
:100040001DC100001BC1000019C1000017C1000044
:1000500015C1000013C1000011C10000BFC20000A3
:100060000DC1000065C5000099C5000007C1000072
:1000700005C1000003C1000001C10000FFC0000075
:10008000FDC00000FBC00000F9C00000F7C0000088
:10009000DBC500000FC60000F1C00000EFC000008B
:1000A000EDC00000EBC00000E9C00000E7C00000A8
:1000B000E5C00000E3C00000E1C00000DFC00000B8
:1000C000DDC00000DBC000000C948F0949C60000B1
:1000D0007DC60000D3C00000CFC6000003C70000EB
:1000E000CDC00000D903DC03CB03CF03D503130439
:1000F000E003E403EA03EE03F203F803FC03000465
:10010000130406040A040E0400000A0B02090C0D75
:100110000E080703040100000000000000000000BA
:1001200000000000000000000000000000000000CF
:10013000000000001211100000000000000000008C
:1001400000000000000000000000000000000102AC
:1001500010202008081020401020408002010201D9
:100160000804020101020408102040808040201091
:1001700008040201800402018040201008040201EA
:100180000804020101020408102040800102040852
:10019000102040800505050507050808080802022B
:1001A00002020A0A08080404040401010101010111
:1001B00001010303030303030303040707070C0CF4
:1001C0000C0C0C0C0C0C02020202060606060606BB
:1001D00006060B0B0B0B0B0B0B0B00002200250074
:1001E00028002B002E003100340002010000050120
:1001F00008010B0100002100240027002A002D0027
:100200003000330001010000040107010A0102006F
:10021000F70583060F079B07070811241FBECFEFC2
:10022000D1E2DEBFCDBF00E00CBF12E0A0E0B2E043
:10023000EEECF4E100E00BBF02C007900D92A83392
:10024000B107D9F724E0A8E3B2E001C01D92AC3CAD
:10025000B207E1F711E0CDE0D1E000E006C0219760
:100260000109802FFE010E945D0AC830D10780E09D
:100270000807A9F70E94F6090C94650AC1CE662307
:1002800011F061E001C060E0CFC2662311F061E0CF
:1002900001C060E005C380910A024CD28F3F9105F6
:1002A00019F010F08FEF90E0682F89E0EECF1092F8
:1002B000C7041092C6041092C8041092C904109288
:1002C000CA041092CB0460910A0270910B028091D3
:1002D0000C0290910D020E94830981E090E0A0E061
:1002E000B0E08093C8049093C904A093CA04B0936B
:1002F000CB0461E089E0C3CF8091C8049091C90428
:10030000A091CA04B091CB040197A105B10561F495
:1003100082E090E0A0E0B0E08093C8049093C9042C
:10032000A093CA04B093CB04089508951F920F922E
:100330000FB60F9211240BB60F922F933F934F934A
:100340005F936F937F938F939F93AF93BF93EF933D
:10035000FF93E0911202F09113021995FF91EF9132
:10036000BF91AF919F918F917F916F915F914F91CD
:100370003F912F910F900BBE0F900FBE0F901F90CB
:1003800018951F920F920FB60F9211240BB60F9271
:100390002F933F934F935F936F937F938F939F938D
:1003A000AF93BF93EF93FF93E0911402F091150286
:1003B0001995FF91EF91BF91AF919F918F917F918F
:1003C0006F915F914F913F912F910F900BBE0F90C6
:1003D0000FBE0F901F9018951F920F920FB60F929D
:1003E00011240BB60F922F933F934F935F936F930C
:1003F0007F938F939F93AF93BF93EF93FF93E0917E
:100400001602F09117021995FF91EF91BF91AF91EC
:100410009F918F917F916F915F914F913F912F911C
:100420000F900BBE0F900FBE0F901F9018951F924C
:100430000F920FB60F9211240BB60F922F933F938A
:100440004F935F936F937F938F939F93AF93BF93DC
:10045000EF93FF93E0911802F09119021995FF9123
:10046000EF91BF91AF919F918F917F916F915F912C
:100470004F913F912F910F900BBE0F900FBE0F9099
:100480001F9018951F920F920FB60F9211240BB662
:100490000F922F933F934F935F936F937F938F931D
:1004A0009F93AF93BF93EF93FF93E0910E02F09170
:1004B0000F021995FF91EF91BF91AF919F918F918D
:1004C0007F916F915F914F913F912F910F900BBE54
:1004D0000F900FBE0F901F9018951F920F920FB69E
:1004E0000F9211240BB60F922F933F934F935F936C
:1004F0006F937F938F939F93AF93BF93EF93FF93EC
:10050000E0911002F09111021995FF91EF91BF91C6
:10051000AF919F918F917F916F915F914F913F919B
:100520002F910F900BBE0F900FBE0F901F9018953C
:100530001F920F920FB60F9211240BB60F922F93AA
:100540003F934F935F936F937F938F939F93AF935B
:10055000BF93EF93FF93E0911A02F0911B0219955C
:10056000FF91EF91BF91AF919F918F917F916F918B
:100570005F914F913F912F910F900BBE0F900FBE47
:100580000F901F9018951F920F920FB60F92112483
:100590000BB60F922F933F934F935F936F937F937D
:1005A0008F939F93AF93BF93EF93FF93E0911C02C0
:1005B000F0911D021995FF91EF91BF91AF919F911D
:1005C0008F917F916F915F914F913F912F910F90FC
:1005D0000BBE0F900FBE0F901F9018951F920F9299
:1005E0000FB60F9211242F933F938F939F93AF9346
:1005F000BF938091390290913A02A0913B02B09151
:100600003C023091380223E0230F2D3720F401966D
:10061000A11DB11D05C026E8230F0296A11DB11D25
:10062000209338028093390290933A02A0933B02C0
:10063000B0933C0280913D0290913E02A0913F0216
:10064000B09140020196A11DB11D80933D0290938F
:100650003E02A0933F02B0934002BF91AF919F91A1
:100660008F913F912F910F900FBE0F901F90189573
:10067000789484B5826084BD84B5816084BD85B57D
:10068000826085BD85B5816085BDEEE6F0E0808144
:1006900081608083E1E8F0E0108280818260808365
:1006A000808181608083E0E8F0E0808181608083E8
:1006B000E1EBF0E0808184608083E0EBF0E080811A
:1006C00081608083E1E9F0E08081826080838081C5
:1006D00081608083E0E9F0E0808181608083E1EAED
:1006E000F0E0808182608083808181608083E0EAA5
:1006F000F0E0808181608083E1E2F1E080818260CE
:100700008083808181608083E0E2F1E0808181608C
:100710008083EAE7F0E0808184608083808182606A
:100720008083808181608083808180688083109253
:10073000C1000895863308F0865390917B00282FDE
:100740002870977F922B90937B00877020911E02D8
:1007500090E4299F90011124822B80937C0080914A
:100760007A00806480937A0080917A0086FDFCCFC5
:10077000809178002091790090E0922B089590E08C
:10078000FC013197E231F10508F04DC08827EE58A1
:10079000FF4F8F4F92C6809180008F7703C080916A
:1007A00080008F7D80938000089580918000877FF6
:1007B000F9CF84B58F7702C084B58F7D84BD08954D
:1007C0008091B0008F7703C08091B0008F7D8093BF
:1007D000B0000895809190008F7707C080919000BD
:1007E0008F7D03C080919000877F80939000089553
:1007F0008091A0008F7707C08091A0008F7D03C0FB
:100800008091A000877F8093A000089580912001AF
:100810008F7707C0809120018F7D03C080912001D8
:10082000877F809320010895CF93DF9390E0FC01B0
:10083000E25BFE4F2491FC01EC56FE4F849188232D
:1008400061F190E0880F991FFC01EC50FE4FC591BB
:10085000D491FC01E652FE4FA591B491611109C0FB
:100860009FB7F8948881209582238883EC912E236A
:100870000BC0623061F49FB7F8943881822F809565
:1008800083238883EC912E2B2C939FBF06C08FB7B8
:10089000F894E8812E2B28838FBFDF91CF910895A4
:1008A0001F93CF93DF93282F30E0F901E85FFE4FCD
:1008B0008491F901E25BFE4FD491F901EC56FE4FB1
:1008C000C491CC23C1F0162F811159DFEC2FF0E039
:1008D000EE0FFF1FE652FE4FA591B4918FB7F8942B
:1008E000111105C09C91ED2FE095E92302C0EC9118
:1008F000ED2BEC938FBFDF91CF911F910895FC01F9
:10090000918D228D892F90E0805C9F4F821B9109F1
:100910008F7399270895FC01918D828D981731F07E
:10092000828DE80FF11D858D90E008958FEF9FEF88
:100930000895FC01918D828D981761F0828DDF0101
:10094000A80FB11D5D968C91928D9F5F9F73928FC2
:1009500090E008958FEF9FEF0895FC01848DDF01F3
:10096000A80FB11DA35ABF4F2C91848D90E0019622
:100970008F739927848FA689B7892C93A089B18911
:100980008C9180648C93938D848D981306C002881B
:10099000F389E02D80818F7D80830895CF93DF934D
:1009A000EC01888D8823C1F0EA89FB89808185FD6F
:1009B00005C0A889B9898C9186FD0EC00FB607FCC9
:1009C000F5CF808185FFF2CFA889B9898C9185FF09
:1009D000EDCFCE01C2DFE8CFDF91CF910895EF9246
:1009E000FF920F931F93CF93DF93EC0181E0888FE9
:1009F0009B8D8C8D981305C0E889F989808185FDD0
:100A000023C0F62E0B8D10E00F5F1F4F0F731127C1
:100A1000E02E8C8DE8120BC00FB607FCFACFE889E8
:100A2000F989808185FFF5CFCE0197DFF2CF8B8DDD
:100A3000FE01E80FF11DE35AFF4FF0820B8FEA89A8
:100A4000FB898081806207C0EE89FF896083E88925
:100A5000F98980818064808381E090E0DF91CF918B
:100A60001F910F91FF90EF900895CF92DF92EF9238
:100A7000FF921F93CF93DF93EC016A017B01122F4A
:100A8000E889F98982E080834115514E610571053D
:100A9000A9F060E079E08DE390E0A7019601EBD446
:100AA000DA01C9010197A109B109B695A7959795F2
:100AB0008795AC01411580E15807A0F0E889F989D4
:100AC000108260E874E88EE190E0A7019601D3D42B
:100AD000BA01A901415051096109710976956795DB
:100AE00057954795EC85FD855083EE85FF854083BE
:100AF000188EEC89FD891083EA89FB8980818061E9
:100B00008083EA89FB89808188608083EA89FB8908
:100B1000808180688083EA89FB8980818F7D8083E2
:100B2000DF91CF911F91FF90EF90DF90CF900895CC
:100B30001F920F920FB60F9211240BB60F922F93A4
:100B40008F939F93EF93FF93E0915102F0915202A4
:100B50008081E0915702F091580282FD12C090818D
:100B600080915A028F5F8F7320915B02821751F040
:100B7000E0915A02F0E0EF5BFD4F958F80935A02AF
:100B800001C08081FF91EF919F918F912F910F90E4
:100B90000BBE0F900FBE0F901F9018951F920F92D3
:100BA0000FB60F9211240BB60F922F933F934F93D2
:100BB0005F936F937F938F939F93AF93BF93EF93C5
:100BC000FF9381E492E0C9DEFF91EF91BF91AF9175
:100BD0009F918F917F916F915F914F913F912F9155
:100BE0000F900BBE0F900FBE0F901F901895E1E471
:100BF000F2E01382128288EE93E0A0E0B0E08483FA
:100C00009583A683B78386E292E09183808385EC07
:100C100090E09587848784EC90E09787868780ECC6
:100C200090E0918B808B81EC90E0938B828B82ECB7
:100C300090E0958B848B86EC90E0978B868B118E61
:100C4000128E138E148E08951F920F920FB60F926C
:100C500011240BB60F922F938F939F93EF93FF93D3
:100C6000E091EE02F091EF028081E091F402F091C8
:100C7000F50282FD12C090818091F7028F5F8F7321
:100C80002091F802821751F0E091F702F0E0E25271
:100C9000FD4F958F8093F70201C08081FF91EF9106
:100CA0009F918F912F910F900BBE0F900FBE0F90C1
:100CB0001F9018951F920F920FB60F9211240BB62A
:100CC0000F922F933F934F935F936F937F938F93E5
:100CD0009F93AF93BF93EF93FF938EED92E03DDE32
:100CE000FF91EF91BF91AF919F918F917F916F9104
:100CF0005F914F913F912F910F900BBE0F900FBEC0
:100D00000F901F901895EEEDF2E01382128288EE9C
:100D100093E0A0E0B0E084839583A683B78386E266
:100D200092E0918380838DEC90E0958784878CECB2
:100D300090E09787868788EC90E0918B808B89EC98
:100D400090E0938B828B8AEC90E0958B848B8EEC79
:100D500090E0978B868B118E128E138E148E0895D1
:100D60001F920F920FB60F9211240BB60F922F9372
:100D70008F939F93EF93FF93E0918B03F0918C03FC
:100D80008081E0919103F091920382FD12C09081E5
:100D9000809194038F5F8F7320919503821751F098
:100DA000E0919403F0E0E558FC4F958F8093940315
:100DB00001C08081FF91EF919F918F912F910F90B2
:100DC0000BBE0F900FBE0F901F9018951F920F92A1
:100DD0000FB60F9211240BB60F922F933F934F93A0
:100DE0005F936F937F938F939F93AF93BF93EF9393
:100DF000FF938BE793E0B1DDFF91EF91BF91AF914E
:100E00009F918F917F916F915F914F913F912F9122
:100E10000F900BBE0F900FBE0F901F901895EBE731
:100E2000F3E01382128288EE93E0A0E0B0E08483C6
:100E30009583A683B78386E292E09183808385EDD4
:100E400090E09587848784ED90E09787868780ED92
:100E500090E0918B808B81ED90E0938B828B82ED83
:100E600090E0958B848B86ED90E0978B868B118E2E
:100E7000128E138E148E08951F920F920FB60F923A
:100E800011240BB60F922F938F939F93EF93FF93A1
:100E9000E0912804F09129048081E0912E04F091E2
:100EA0002F0482FD12C09081809131048F5F8F7377
:100EB00020913204821751F0E0913104F0E0E85EB5
:100EC000FB4F958F8093310401C08081FF91EF919A
:100ED0009F918F912F910F900BBE0F900FBE0F908F
:100EE0001F9018951F920F920FB60F9211240BB6F8
:100EF0000F922F933F934F935F936F937F938F93B3
:100F00009F93AF93BF93EF93FF9388E194E025DD28
:100F1000FF91EF91BF91AF919F918F917F916F91D1
:100F20005F914F913F912F910F900BBE0F900FBE8D
:100F30000F901F901895E8E1F4E01382128288EE7A
:100F400093E0A0E0B0E084839583A683B78386E234
:100F500092E09183808385E391E09587848784E3A1
:100F600091E09787868780E391E0918B808B81E386
:100F700091E0938B828B82E391E0958B848B86E367
:100F800091E0978B868B118E128E138E148E08959E
:100F90008F929F92AF92BF92CF92DF92EF92FF9289
:100FA0000F931F93CF93DF937C018B016C0182E041
:100FB000C80ED11C4701E5E08E0E911CC0E0D0E0C8
:100FC000F60161916F014AE050E0C801C5D05C01B3
:100FD0006EE2C80167D08A0D9B1DC80FD91FC814C7
:100FE000D90471F74AE050E0F7016581C801B4D037
:100FF0008C0F9D1FDF91CF911F910F91FF90EF906C
:10100000DF90CF90BF90AF909F908F900895E5EBC9
:10101000F4E086E392E0918380831282138214824B
:1010200015820895CF92DF92EF92FF920F931F9354
:10103000CF93DF936C017A018B01C0E0D0E0CE1535
:10104000DF0589F0D8016D918D01D601ED91FC91FC
:101050000190F081E02DC6011995892B11F47E01D4
:1010600002C02196ECCFC701DF91CF911F910F9164
:10107000FF90EF90DF90CF9008956115710579F0A2
:10108000FB0101900020E9F73197AF01461B570B98
:10109000DC01ED91FC910280F381E02D199480E058
:1010A00090E00895DC01ED91FC910190F081E02D3C
:1010B00019944F925F926F927F92EF92FF920F93EB
:1010C0001F93CF93DF93CDB7DEB7A1970FB6F894F8
:1010D000DEBF0FBECDBF7C01FA01CB0119A22230C9
:1010E00008F42AE08E010F5D1F4F422E512C612C17
:1010F000712CBF01A3019201BED1F901CA010150B7
:1011000011096A3014F4605D01C0695CD8016C9308
:10111000232B242B252B69F7B801C701AEDFA1963D
:101120000FB6F894DEBF0FBECDBFDF91CF911F91F8
:101130000F91FF90EF907F906F905F904F90089588
:101140002115310541F4DC01ED91FC910190F08114
:10115000E02D642F1994ADCF9A01462F50E060E046
:1011600070E0EECF8230A9F028F4882349F0813076
:1011700051F00895843021F1E8F0853039F1089577
:1011800010926E00089580916F008D7F80936F00A4
:101190000895809170008D7F8093700081E080932E
:1011A000B0008091B100887F84608093B10010927C
:1011B000B3000895809171008D7F80937100089530
:1011C000809172008D7F80937200089580917300EA
:1011D0008D7F809373000895CF93C82F80911F0255
:1011E0008C1307C0EEE0F2E0E4918FEF80931F02D2
:1011F00001C0EFEF8E2FB6DF60E08C2FCF9150CB88
:101200001F920F920FB60F9211240BB60F922F93CD
:101210003F934F935F936F937F938F939F93AF937E
:10122000BF93EF93FF938091BE049091BF04A09170
:10123000C004B091C104892B8A2B8B2B51F1809172
:10124000BB04E091BC04F091BD04908189278083A8
:101250008091BE049091BF04A091C004B091C104DC
:10126000181619061A061B06BCF48091BE0490914C
:10127000BF04A091C004B091C1040197A109B109B4
:101280008093BE049093BF04A093C004B093C104A4
:1012900003C080911F02A0DFFF91EF91BF91AF913A
:1012A0009F918F917F916F915F914F913F912F917E
:1012B0000F900BBE0F900FBE0F901F90189540E837
:1012C00055E260E070E080E090E000C08130910580
:1012D00071F01CF4892B39F008958230910559F092
:1012E000039769F0089526E081E492E00BC026E0C0
:1012F0008EED92E007C026E08BE793E003C026E086
:1013000088E194E0B2CBDC01CB0186339105A105E5
:10131000B10518F4C696A11DB11D60E085CA1F92E3
:101320000F920FB60F9211240BB60F922F933F938B
:101330004F935F936F937F938F939F93AF93BF93DD
:10134000EF93FF9387EF92EC909325018093240114
:1013500034D0FF91EF91BF91AF919F918F917F9189
:101360006F915F914F913F912F910F900BBE0F9016
:101370000FBE0F901F90189587EF92EC9093250168
:1013800080932401A3E7B0E08C918E7F8C93E0E200
:10139000F1E080818C7F8083E1E2F1E08081877ED3
:1013A000808380818560808380818D7F80838C9124
:1013B00081608C93089581E008958091C30491E049
:1013C000980F9093C304882339F021E030E03093E4
:1013D000C5042093C40407C078940E944B01F8947C
:1013E0008091C30481508093C30408950F931F9389
:1013F000CF93DF931F92CDB7DEB781E0898338D9D1
:101400005EDF0091200210912102F801118210820A
:101410000E945701B1DF81E0F80120813181232B47
:1014200009F080E089837894789489818823C1F0D9
:1014300081E0F80120813181232B09F480E0809341
:10144000C2049091C20481E0911180E08983898176
:10145000882311F0B0DF02C080E090E08983E5CFFF
:101460000E947C01F89480E090E00F90DF91CF9192
:101470001F910F910895A1E21A2EAA1BBB1BFD011B
:101480000DC0AA1FBB1FEE1FFF1FA217B307E40763
:10149000F50720F0A21BB30BE40BF50B661F771FBB
:1014A000881F991F1A9469F760957095809590959B
:1014B0009B01AC01BD01CF010895EE0FFF1F881FF6
:0E14C0008BBF0790F691E02D1994F894FFCFA2
:1014CE000000CC0480000100000004000000950123
:1014DE00950195019501950195019501950101FFE4
:1014EE00C60400000000EF0412087F0499048B0468
:0814FE00CE0400000000C80745
:00000001FF
