:1000000059C00000DDC4000002C500007BC0000034
:1000100079C0000077C0000075C000000C94B80AD9
:1000200071C000006FC000006DC000006BC0000018
:1000300069C000000C941E0B65C0000063C0000086
:100040000DC500005FC000000BC700003BC70000EB
:1000500059C0000057C0000055C0000053C0000048
:1000600051C000004FC00000000000080002010065
:100070000003040700000000000000000102040863
:100080001020408001020408102001020408102002
:10009000040404040404040402020202020203032E
:1000A0000303030300000000250028002B000200CA
:1000B0008707F30711241FBECFEFD8E0DEBFCDBF07
:1000C00011E0A0E0B1E0EAE7FDE102C005900D9289
:1000D000A635B107D9F722E0A6E5B1E001C01D922F
:1000E000AF36B207E1F710E0CAE5D0E004C02197CF
:1000F000FE010E94B50EC835D107C9F70E94810BD9
:100100000C94BB0E7DCF6F927F928F929F92AF9295
:10011000BF92CF92DF92EF92FF920F931F93CF93F4
:10012000DF931F92CDB7DEB7F02E9C2D30E0283044
:10013000310511F424E030E0992339F0913041F099
:10014000923049F002E010E008C00AE010E005C07B
:1001500000E110E002C008E010E0811114C1F110CC
:100160001AC0249FC001259F900D349F900D11242B
:10017000AC018FE591E00F90DF91CF911F910F912E
:10018000FF90EF90DF90CF90BF90AF909F908F90B7
:100190007F906F9033C7C4016A01B72E962EBC01C1
:1001A0008FE591E0E9826AD7398131111BC0692C52
:1001B0007B2CC60CD71C6C147D0409F4E4C081E0D0
:1001C000A801F3016081F81205C08FE591E00E945B
:1001D0000E0904C08FE591E00E941409FFEF6F1A29
:1001E0007F0AE9CF3130E9F4692C7B2CC114D104AA
:1001F00009F4C9C081E0F30160817181A801F8129E
:1002000005C08FE591E00E94290904C08FE591E0C7
:100210000E942E09F1E0CF1AD10882E0680E711C0D
:10022000E5CF323021F5692C7B2CC114D10409F4BF
:10023000AAC0E1E0FE120AC0F3014081518162814F
:10024000738198018FE591E0DDD70AC0F301408109
:1002500051816281738198018FE591E00E9442098A
:10026000F1E0CF1AD10884E0680E711CDECF333084
:1002700011F5692C7B2CC60CD71C6C147D0409F479
:1002800082C0E1E0FE120AC0F3016081062E000C7C
:10029000770BA8018FE591E08AD709C0F30160814F
:1002A000062E000C770BA8018FE591E086D7FFEFB3
:1002B0006F1A7F0AE2CF3430D9F4692C7B2CC11439
:1002C000D10409F460C081E0F30160817181A8016B
:1002D000F81204C08FE591E06AD703C08FE591E082
:1002E0006CD7F1E0CF1AD10882E0680E711CE7CF1D
:1002F000353019F5692C7B2CC114D10409F443C0A5
:10030000E1E0FE120AC0F3014081518162817381F4
:1003100098018FE591E004D709C0F3014081518134
:100320006281738198018FE591E05CD7F1E0CF1A8B
:10033000D10884E0680E711CDFCF363021F5092D1D
:100340001B2DB12CC114D104F1F0E1E0FE120BC061
:10035000F801408151816281738195018FE591E0BF
:100360000E94200A0AC0F801408151816281738194
:1003700095018FE591E00E94210AF1E0CF1AD108A2
:100380000C5F1F4FDFCF0F90DF91CF911F910F9127
:10039000FF90EF90DF90CF90BF90AF909F908F90A5
:1003A0007F906F900895AB01BC018FE591E00C94B4
:1003B0005F0AAF92BF92CF92DF92EF92FF920F93BC
:1003C0001F93CF93DF9300D0CDB7DEB77B015901E8
:1003D000CDB6DEB69B01220F331F6DB77EB7621B11
:1003E000730B0FB6F8947EBF0FBE6DBF0DB71EB76F
:1003F0000F5F1F4FE82FF0E0EE0FFF1FE45FFE4F8F
:100400000190F081E02DB701C80149835A83099515
:10041000F8014981A42F5A81B52FE00EF11EEE1587
:10042000FF0519F081918D93FACF81E0F50180836A
:100430000FB6F894DEBE0FBECDBE0F900F90DF91C9
:10044000CF911F910F91FF90EF90DF90CF90BF90D1
:10045000AF900895CF92DF92EF92FF920F931F9388
:10046000CF93DF93CDB7DEB7C354D1090FB6F8945D
:10047000DEBF0FBECDBFF82E8B01E52EC82ED12CCE
:10048000CC0CDD1CF601E65FFE4F0190F081E02D03
:1004900022962FAF229723963FAF239724964FAFF4
:1004A00024970995BC0122962FAD229723963FAD44
:1004B000239724964FAD24978017910711F45E2D52
:1004C00038C08017910728F4E42FFE2D0E0F1F1F50
:1004D00033C0C801880F991F8617970740F5F601AA
:1004E000E45FFE4FCB01B8010E947F0ECB01019764
:1004F000809FB001819F700D909F700D112401901D
:10050000F081E02DCE01019622962FAF22972396FF
:100510003FAF239724964FAF2497099522962FAD8E
:10052000229723963FAD239724964FAD24975E2DB7
:10053000B8018F2D3EDF07C0E017F10711F01192CF
:10054000FBCFF9011082CD5BDF4F0FB6F894DEBF11
:100550000FBECDBFDF91CF911F910F91FF90EF9014
:10056000DF90CF9008958FE591E061C360E070E087
:1005700080E89FE7089560E070E080E89FE70895D5
:1005800060E070E080E89FEF089560E070E080E850
:100590009FEF089560E070E080EC9FEF089560E0C9
:1005A00070E080EC9FEF0895F5DF6093190270937F
:1005B0001A0280931B0290931C02F1DF60930D02DC
:1005C00070930E0280930F0290931002CFDF60931E
:1005D0001502709316028093170290931802CBDFD6
:1005E000609311027093120280931302909314028D
:1005F000C7DF60931D0270931E0280931F029093C9
:100600002002C3DF609321027093220280932302B1
:10061000909324020895CF92DF92EF92FF92CF93AE
:100620006B017C0120911502309116024091170256
:10063000509118020E94290CC1E0882371F020918A
:100640001D0230911E0240911F0250912002C701ED
:10065000B6010E94290C8111C0E08C2FCF91FF9030
:10066000EF90DF90CF900895CF93C1E09B01AC0154
:100670000E94290C811101C0C0E08C2FCF910895F8
:100680008F929F92AF92BF92CF92DF92EF92FF92A2
:100690000F931F93CF93DF93CDB7DEB72A970FB693
:1006A000F894DEBF0FBECDBF609167027091680203
:1006B0009E01275F3F4FAE014B5F5F4F80E0CADE78
:1006C0008985882309F49FC06D817E818F819885FB
:1006D0000E94C10C20911601309117014091180120
:1006E000509119010E94C40B20911A0130911B01F5
:1006F00040911C0150911D010E94180E69837A835C
:100700008B839C8320910E0130910F014091100149
:10071000509111010E94180E0E94FE0C6B017C0189
:10072000A3DF811125C0C701B60175DF811120C08B
:1007300020E030E040E85FE4C701B6010E94180DF8
:100740006B017C015B01870120E030E0A9010E9480
:10075000290C87FF11C0C701B60190580E94950C63
:1007600090958095709561957F4F8F4F9F4F08C0F2
:10077000A12CB12C00E010E0B501C8010E94950C3D
:100780000E94C10CC0905F02D0906002E0906102B4
:10079000F0906202A7019601F8D7209126013091CE
:1007A000270140912801509129010E94180E2091A3
:1007B0001201309113014091140150911501E5D7B8
:1007C00060936B0270936C0280936D0290936E0243
:1007D00029813A814B815C8160911E0170911F01DA
:1007E00080912001909121010E94180E9B01AC0183
:1007F000C701B601CAD760935F027093600280930D
:1008000061029093620280916B0290916C02A091C0
:100810006D02B0916E0289839A83AB83BC83609131
:100820005B0270915C0280915D0290915E020E9479
:10083000950CC62E6091530270915402809155021E
:10084000909156020E94950CE62E6091570270918D
:1008500058028091590290915A020E94950C062FDD
:1008600060914F027091500280915102909152021A
:100870000E94950C262F60914B0270914C02809142
:100880004D0290914E022A870E94950C862F812C52
:10089000912C92E0A92E2A8541E050E0BE016F5FC5
:1008A0007F4F31DC2A960FB6F894DEBF0FBECDBF66
:1008B000DF91CF911F910F91FF90EF90DF90CF903C
:1008C000BF90AF909F908F90089584E090E06CDE91
:1008D000109226021092250210926B0210926C0266
:1008E00010926D0210926E02E7E2F2E084E4DF0102
:1008F0001D928A95E9F781E090E0A0E0B0E084AF36
:1009000095AFA6AFB7AF24E030E030936A022093F2
:100910006902309368022093670280839183A283E7
:10092000B38380E090E0A0E0B1E480A791A7A2A704
:10093000B3A780E090E0A0ECB0E484A795A7A6A7B9
:10094000B7A78091220190912301A0912401B09139
:10095000250180AF91AFA2AFB3AF0895809163023C
:1009600090916402A0916502B09166020197A10581
:10097000B10561F482E090E0A0E0B0E08093630212
:1009800090936402A0936502B0936602809127025F
:1009900090912802A0912902B0912A020197A10505
:1009A000B10561F482E090E0A0E0B0E0809327021E
:1009B00090932802A0932902B0932A0208950895E3
:1009C0001F920F920FB60F9211242F933F934F93C4
:1009D0005F936F937F938F939F93AF93BF93EF93A7
:1009E000FF93E0912A01F0912B010995FF91EF917E
:1009F000BF91AF919F918F917F916F915F914F9137
:100A00003F912F910F900FBE0F901F9018951F923E
:100A10000F920FB60F9211242F933F934F935F9332
:100A20006F937F938F939F93AF93BF93EF93FF93B6
:100A3000E0912C01F0912D010995FF91EF91BF916B
:100A4000AF919F918F917F916F915F914F913F9166
:100A50002F910F900FBE0F901F9018951F920F921D
:100A60000FB60F9211242F933F938F939F93AF93C1
:100A7000BF938091570190915801A0915901B09175
:100A80005A013091560123E0230F2D3720F40196AF
:100A9000A11DB11D05C026E8230F0296A11DB11DA1
:100AA000209356018093570190935801A0935901C8
:100AB000B0935A0180915B0190915C01A0915D011E
:100AC000B0915E010196A11DB11D80935B019093D1
:100AD0005C01A0935D01B0935E01BF91AF919F91C6
:100AE0008F913F912F910F900FBE0F901F901895EF
:100AF0002FB7F89460915701709158018091590176
:100B000090915A012FBF0895789484B5826084BD76
:100B100084B5816084BD85B5826085BD85B5816001
:100B200085BDEEE6F0E0808181608083E1E8F0E061
:100B30001082808182608083808181608083E0E890
:100B4000F0E0808181608083E1EBF0E0808184606F
:100B50008083E0EBF0E0808181608083EAE7F0E071
:100B600080818460808380818260808380818160D5
:100B700080838081806880831092C10008958330D3
:100B800081F028F4813099F08230A1F00895873007
:100B9000A9F08830B9F08430D1F4809180008F7D45
:100BA00003C0809180008F7780938000089584B582
:100BB0008F7702C084B58F7D84BD08958091B00089
:100BC0008F7703C08091B0008F7D8093B00008952F
:100BD0001F93CF93DF93282F30E0F901E859FF4F9F
:100BE0008491F901E458FF4FD491F901E057FF4F88
:100BF000C491CC23C1F0162F8111C1DFEC2FF0E09E
:100C0000EE0FFF1FEC55FF4FA591B4918FB7F894ED
:100C1000111105C09C91ED2FE095E92302C0EC91E4
:100C2000ED2BEC938FBFDF91CF911F910895FC01C5
:100C3000918D228D892F90E0805C9F4F821B9109BE
:100C40008F7399270895FC01918D828D981731F04B
:100C5000828DE80FF11D858D90E008958FEF9FEF55
:100C60000895FC01918D828D981761F0828DDF01CE
:100C7000A80FB11D5D968C91928D9F5F9F73928F8F
:100C800090E008958FEF9FEF0895FC01848DDF01C0
:100C9000A80FB11DA35ABF4F2C91848D90E00196EF
:100CA0008F739927848FA689B7892C93A089B189DE
:100CB0008C9180648C93938D848D981306C00288E8
:100CC000F389E02D80818F7D80830895CF93DF931A
:100CD000EC01888D8823C1F0EA89FB89808185FD3C
:100CE00005C0A889B9898C9186FD0EC00FB607FC96
:100CF000F5CF808185FFF2CFA889B9898C9185FFD6
:100D0000EDCFCE01C2DFE8CFDF91CF910895EF9212
:100D1000FF920F931F93CF93DF93EC0181E0888FB5
:100D20009B8D8C8D981305C0E889F989808185FD9C
:100D300023C0F62E0B8D10E00F5F1F4F0F7311278E
:100D4000E02E8C8DE8120BC00FB607FCFACFE889B5
:100D5000F989808185FFF5CFCE0197DFF2CF8B8DAA
:100D6000FE01E80FF11DE35AFF4FF0820B8FEA8975
:100D7000FB898081806207C0EE89FF896083E889F2
:100D8000F98980818064808381E090E0DF91CF9158
:100D90001F910F91FF90EF900895CF92DF92EF9205
:100DA000FF921F93CF93DF93EC016A017B01122F17
:100DB000E889F98982E080834115514E610571050A
:100DC000A9F060E079E08DE390E0A7019601ABD750
:100DD000DA01C9010197A109B109B695A7959795BF
:100DE0008795AC01411580E15807A0F0E889F989A1
:100DF000108260E874E88EE190E0A701960193D735
:100E0000BA01A901415051096109710976956795A7
:100E100057954795EC85FD855083EE85FF8540838A
:100E2000188EEC89FD891083EA89FB8980818061B5
:100E30008083EA89FB89808188608083EA89FB89D5
:100E4000808180688083EA89FB8980818F7D8083AF
:100E5000DF91CF911F91FF90EF90DF90CF90089599
:100E60001F920F920FB60F9211242F938F939F937F
:100E7000EF93FF93E0916F01F09170018081E09119
:100E80007501F091760182FD12C090818091780108
:100E90008F5F8F7320917901821751F0E091780173
:100EA000F0E0E15AFE4F958F8093780101C0808178
:100EB000FF91EF919F918F912F910F900FBE0F9007
:100EC0001F9018951F920F920FB60F9211242F9317
:100ED0003F934F935F936F937F938F939F93AF93C2
:100EE000BF93EF93FF938FE591E0CFDEFF91EF91FA
:100EF000BF91AF919F918F917F916F915F914F9132
:100F00003F912F910F900FBE0F901F901895EFE516
:100F1000F1E01382128288EE93E0A0E0B0E08483D7
:100F20009583A683B78385E391E09183808385ECE5
:100F300090E09587848784EC90E09787868780ECA3
:100F400090E0918B808B81EC90E0938B828B82EC94
:100F500090E0958B848B86EC90E0978B868B118E3E
:100F6000128E138E148E08958F929F92AF92BF921D
:100F7000CF92DF92EF92FF920F931F93CF93DF9365
:100F80007C018B016C0182E0C80ED11C4701E5E0B9
:100F90008E0E911CC0E0D0E0F60161916F014AE035
:100FA00050E0C8013BD15C016EE2C80168D08A0DF7
:100FB0009B1DC80FD91FC814D90471F74AE050E02F
:100FC000F7016581C8012AD18C0F9D1FDF91CF9158
:100FD0001F910F91FF90EF90DF90CF90BF90AF9057
:100FE0009F908F900895ECEFF1E085E491E091837C
:100FF000808312821382148215820895CF92DF9229
:10100000EF92FF920F931F93CF93DF936C017A01BE
:101010008B01C0E0D0E0CE15DF0589F0D8016D91DD
:101020008D01D601ED91FC910190F081E02DC6017A
:101030000995892B11F47E0102C02196ECCFC701DE
:10104000DF91CF911F910F91FF90EF90DF90CF90A4
:1010500008956115710579F0FB0101900020E9F711
:101060003197AF01461B570BDC01ED91FC910280DB
:10107000F381E02D099480E090E00895EACFDC014F
:10108000ED91FC910190F081E02D099467E471E00D
:10109000E0CF4F925F926F927F92EF92FF920F9309
:1010A0001F93CF93DF93CDB7DEB7A1970FB6F89418
:1010B000DEBF0FBECDBF7C01FA01CB0119A22230E9
:1010C00008F42AE08E010F5D1F4F422E512C612C37
:1010D000712CBF01A301920126D6F901CA0101506A
:1010E00011096A3014F4605D01C0695CD8016C9329
:1010F000232B242B252B69F7B801C701AADFA19662
:101100000FB6F894DEBF0FBECDBFDF91CF911F9118
:101110000F91FF90EF907F906F905F904F900895A8
:10112000CF92DF92EF92FF920F931F93CF93DF93B3
:10113000EC016A017B012115310579F4E881F9811F
:101140000190F081E02D642FDF91CF911F910F91DD
:10115000FF90EF90DF90CF9009942A303105D9F4B9
:1011600077FF18C06DE28BDF8C0144275527BA0149
:101170004C195D096E097F092AE0CE018ADF800FD4
:10118000911FDF91CF911F910F91FF90EF90DF9012
:10119000CF9008952AE0B701A601CE01DF91CF914B
:1011A0001F910F91FF90EF90DF90CF9072CF9A0137
:1011B000AB01770F660B770BB3CF0F931F93CF93D2
:1011C000DF93EC019A01AB01770F660B770BA8DF79
:1011D0008C01CE015BDF800F911FDF91CF911F91BA
:1011E0000F9108950F931F93CF93DF93EC0198DF36
:1011F0008C01CE014BDF800F911FDF91CF911F91AA
:101200000F9108952115310541F4DC01ED91FC9118
:101210000190F081E02D642F09943BCF9A01462F75
:1012200050E060E070E0EECF0F931F93CF93DF9319
:10123000EC019A01462F50E060E070E0E3DF8C01A2
:10124000CE0124DF800F911FDF91CF911F910F916D
:1012500008959A01AB0160E070E0D4CF0F931F9323
:10126000CF93DF93EC019A01AB0160E070E0CADF3D
:101270008C01CE010BDF800F911FDF91CF911F9169
:101280000F9108950F931F93CF93DF93EC01BADF73
:101290008C01CE01FBDE800F911FDF91CF911F915A
:1012A0000F9108954F925F926F927F928F929F92CB
:1012B000AF92BF92CF92DF92EF92FF92CF93DF93E4
:1012C000EC016A017B01B22E9A01AB01C701B601A4
:1012D00012D5882319F06AE471E024C02601370191
:1012E000E89477F82FEF3FEF4FE75FE7C301B201D4
:1012F00002D581110CC02FEF3FEF4FE75FE7C3012D
:10130000B201A7D218161CF46EE471E00BC02FEFE7
:101310003FEF4FE75FE4C701B60186D4181694F497
:1013200062E571E0CE01DF91CF91FF90EF90DF9009
:10133000CF90BF90AF909F908F907F906F905F9075
:101340004F9087CE2FEF3FEF4FE75FECC701B6011D
:1013500080D287FDE5CF20E030E0A901C701B601CA
:1013600078D287FF09C06DE2CE0189DE4C01F7FA21
:10137000F094F7F8F09402C0812C912CA12C60E03D
:1013800070E080E09FE3AB1439F020E030E040E211
:1013900051E463D2A394F7CF9B01AC01C701B6011E
:1013A000F4D12B013C01C1D26B017C01EAD29B013B
:1013B000AC01C301B201E8D12B013C012AE0B70125
:1013C000A601CE0166DE7C01E80CF91CBB2029F0E9
:1013D0006EE2CE0154DEE80EF91EDB2CDD2001F1B9
:1013E00020E030E040E251E4C301B20121D42B01FE
:1013F0003C019BD24B01A12CB12C2AE0B501A401E8
:10140000CE0147DEE80EF91EC501B401BAD29B0138
:10141000AC01C301B201B8D12B013C01DA94DECF9B
:10142000C701DF91CF91FF90EF90DF90CF90BF90F9
:10143000AF909F908F907F906F905F904F900895A6
:1014400031CF0F931F93CF93DF93EC012BDF8C01F0
:10145000CE011CDE800F911FDF91CF911F910F9164
:1014600008950F931F93CF93DF93EC0141DB6887BF
:1014700079878A879B87E881F9810680F781E02D4B
:10148000CE01099597FF16C033DB088519852A859B
:101490003B85DC01CB01801B910BA20BB30B0C81B4
:1014A0001D812E813F8180179107A207B30718F392
:1014B0008FEF9FEFDF91CF911F910F910895CF9202
:1014C000DF92EF92FF920F931F93CF93DF936C0104
:1014D0007A018B01C0E0D0E0CE15DF0559F0C601DE
:1014E000C0DF97FF02C07E0105C0F80181938F0124
:1014F0002196F2CFC701DF91CF911F910F91FF90FD
:10150000EF90DF90CF900895813039F018F082305D
:1015100051F0089510926E00089580916F008D7FB4
:1015200080936F000895809170008D7F809370008C
:1015300081E08093B0008091B100887F84608093C7
:10154000B1001092B3000895CF93C82F80912E015F
:101550008C1307C0EEEAF0E0E4918FEF80932E0148
:1015600001C0EFEF8E2FD0DF60E08C2FCF9130CB1A
:101570001F920F920FB60F9211242F933F934F9308
:101580005F936F937F938F939F93AF93BF93EF93EB
:10159000FF938091050290910602A0910702B091FD
:1015A0000802892B8A2B8B2B51F180910202E0914A
:1015B0000302F091040290818927808380910502C3
:1015C00090910602A0910702B09108021816190620
:1015D0001A061B06BCF48091050290910602A091A8
:1015E0000702B09108020197A109B1098093050291
:1015F00090930602A0930702B093080203C0809163
:101600002E01A2DFFF91EF91BF91AF919F918F913A
:101610007F916F915F914F913F912F910F900FBEEE
:101620000F901F90189540E855E260E070E080E070
:1016300090E000C026E08FE591E0AFCB1F920F92C3
:101640000FB60F9211242F933F934F935F936F9395
:101650007F938F939F93AF93BF93EF93FF9386E90D
:1016600097EE909385008093840032D0FF91EF91A4
:10167000BF91AF919F918F917F916F915F914F91AA
:101680003F912F910F900FBE0F901F90189586E9F4
:1016900097EE9093850080938400AFE6B0E08C9144
:1016A0008E7F8C93E0E8F0E080818C7F8083E1E89E
:1016B000F0E08081877E8083808184608083808168
:1016C0008C7F80838C9181608C93089581E0089554
:1016D00080910A0291E0980F90930A02882339F0D2
:1016E00021E030E030930C0220930B0207C0789485
:1016F0000E944003F89480910A02815080930A026C
:1017000008950F931F93CF93DF931F92CDB7DEB74A
:1017100081E08983F9D987DF00912F011091300191
:10172000F80111821082D1D8B2DF81E0F801208166
:101730003181232B09F080E0898378947894898122
:101740008823C1F081E0F80120813181232B09F445
:1017500080E0809309029091090281E0911180E07C
:1017600089838981882311F0B1DF02C080E090E095
:101770008983E5CFF3D8F89480E090E00F90DF9173
:10178000CF911F910F9108955058BB27AA270ED0D3
:10179000FAC1EBD130F0F0D120F031F49F3F11F4D9
:1017A0001EF4E0C10EF4E095E7FBADC1E92FFCD1DA
:1017B00080F3BA17620773078407950718F071F46E
:1017C0009EF52BC20EF4E0950B2EBA2FA02D0B0127
:1017D000B90190010C01CA01A0011124FF27591B76
:1017E00099F0593F50F4503E68F11A16F040A22F7C
:1017F000232F342F4427585FF3CF469537952795ED
:10180000A795F0405395C9F77EF41F16BA0B620BEB
:10181000730B840BBAF09150A1F0FF0FBB1F661F32
:10182000771F881FC2F70EC0BA0F621F731F841F75
:1018300048F4879577956795B795F7959E3F08F09B
:10184000B3CF9395880F08F09927EE0F979587955A
:10185000089535D108F481E008950CD094C18CD15D
:1018600040F083D130F021F45F3F19F04CC15111A9
:10187000D5C178C199D198F39923C9F35523B1F310
:10188000951B550BBB27AA2762177307840738F0EF
:101890009F5F5F4F220F331F441FAA1FA9F333D04E
:1018A0000E2E3AF0E0E830D091505040E695001C02
:1018B000CAF729D0FE2F27D0660F771F881FBB1FBE
:1018C000261737074807AB07B0E809F0BB0B802D98
:1018D000BF01FF2793585F4F2AF09E3F510568F0E4
:1018E00012C19CC15F3FECF3983EDCF3869577957F
:1018F0006795B795F7959F5FC9F7880F911D9695E6
:10190000879597F90895E1E0660F771F881FBB1F41
:10191000621773078407BA0720F0621B730B840BEE
:10192000BA0BEE1F88F7E095089546D188F09F57CF
:1019300090F0B92F9927B751A0F0D1F0660F771F1B
:10194000881F991F1AF0BA95C9F712C0B13081F0FB
:1019500064D1B1E0089561C1672F782F8827B85FFF
:1019600039F0B93FCCF3869577956795B395D9F75C
:101970003EF490958095709561957F4F8F4F9F4F66
:101980000895E89409C097FB3EF490958095709572
:1019900061957F4F8F4F9F4F9923A9F0F92F96E9BB
:1019A000BB279395F695879577956795B795F11130
:1019B000F8CFFAF4BB0F11F460FF1BC06F5F7F4FCD
:1019C0008F4F9F4F16C0882311F096E911C07723DF
:1019D00021F09EE8872F762F05C0662371F096E8E8
:1019E000862F70E060E02AF09A95660F771F881FB7
:1019F000DAF7880F9695879597F90895F7D080F0D4
:101A00009F3740F491110EF009C160E070E080E86A
:101A10009FEB089526F41B16611D711D811D79C071
:101A200093C0A3D018F011F0A7D038F49BC0F6C033
:101A3000E92FBAD0B0F35523C9F3E7FB6217730758
:101A400084079507A8F199F3E92FFF2788232AF047
:101A50003197660F771F881FDAF7952F5527442394
:101A600032F091505040220F331F441FD2F7BB2752
:101A7000E91BF50B621B730B840BB109C1F222F455
:101A8000620F731F841FB11D31972AF0660F771FF5
:101A9000881FBB1FEFCF915050405AF041F0882370
:101AA00032F0660F771F881F91505040C1F7939511
:101AB0004BC08695779567959F5FD9F7F8CF990FBB
:101AC0000008550FAA0BE0E8FEEF16161706E80708
:101AD000F907C0F012161306E407F50798F0621B29
:101AE000730B840B950B39F40A2661F0232B242BFE
:101AF000252B21F408950A2609F4A140A6958FEF1D
:101B0000811D811D089597F99F6780E870E060E06E
:101B10000895882371F4772321F09850872B762F2E
:101B200007C0662311F499270DC09051862B70E0F1
:101B300060E02AF09A95660F771F881FDAF7880F02
:101B40009695879597F908959F3F31F0915020F42D
:101B5000879577956795B795880F911D9695879589
:101B600097F908959FEF80EC089500240A941616C3
:101B7000170618060906089500240A94121613067B
:101B8000140605060895092E0394000C11F4882309
:101B900052F0BB0F40F4BF2B11F460FF04C06F5F25
:101BA0007F4F8F4F9F4F089557FD9058440F551FFB
:101BB00059F05F3F71F04795880F97FB991F61F0CF
:101BC0009F3F79F087950895121613061406551F46
:101BD000F2CF4695F1DF08C0161617061806991FB2
:101BE000F1CF86957105610508940895E5DFA0F0B1
:101BF000BEE7B91788F4BB279F3860F41616B11DED
:101C0000672F782F8827985FF7CF86957795679508
:101C1000B11D93959639C8F30895E894BB276627BC
:101C20007727CB0197F908954ADF08F48FEF0895DD
:101C30000BD0A9CF9ADF28F09FDF18F0952309F089
:101C400062CF90CF1124EACFAFDFA0F3959FD1F3FD
:101C5000950F50E0551F629FF001729FBB27F00D5A
:101C6000B11D639FAA27F00DB11DAA1F649F6627AF
:101C7000B00DA11D661F829F2227B00DA11D621FFE
:101C8000739FB00DA11D621F839FA00D611D221FB8
:101C9000749F3327A00D611D231F849F600D211D9C
:101CA000822F762F6A2F11249F5750408AF0E1F03F
:101CB00088234AF0EE0FFF1FBB1F661F771F881F88
:101CC00091505040A9F79E3F510570F01CCFA6CF10
:101CD0005F3FECF3983EDCF3869577956795B79573
:101CE000F795E7959F5FC1F7FE2B880F911D96959D
:101CF000879597F90895E3DE880B990B0895AA1B41
:101D0000BB1B51E107C0AA1FBB1FA617B70710F0E6
:101D1000A61BB70B881F991F5A95A9F78095909518
:101D2000BC01CD010895A1E21A2EAA1BBB1BFD0127
:101D30000DC0AA1FBB1FEE1FFF1FA217B307E407AA
:101D4000F50720F0A21BB30BE40BF50B661F771F02
:101D5000881F991F1A9469F76095709580959095E2
:101D60009B01AC01BD01CF010895EE0FFF1F05904F
:0A1D7000F491E02D0994F894FFCFE0
:101D7A0000006F02800001000000B302D3010AD7FD
:101D8A00233C8096184B8096184BACC52737ACC5B8
:101D9A002737000000000050C347DF04DF04FF2597
:101DAA0002000000008706FE0717063106230666B2
:101DBA000600000000B4070D0A006E616E00696E2D
:061DCA0066006F76660062
:00000001FF
