:100000000C9465000C948D000C948D000C948D0064
:100010000C948D000C948D000C948D000C948D002C
:100020000C948D000C948D000C948D000C948D001C
:100030000C948D000C948D000C948D000C948D000C
:100040000C9480010C948D000C949A0E0C94740EF8
:100050000C948D000C948D000C948D000C948D00EC
:100060000C948D000C948D007C3C3E5E2B3D3F2F0C
:100070005B5D3B2C2A225C000000000800020100AE
:100080000003040700000000000000000000000062
:10009000250028002B0000000000240027002A0073
:1000A000040404040404040402020202020203031E
:1000B0000303030301020408102040800102040826
:1000C0001020010204081020B21411241FBECFEF2B
:1000D000D8E0DEBFCDBF25E0A2EEB1E001C01D92A9
:1000E000A434B207E1F711E0A0E0B1E0EAE5FDE2F7
:1000F00002C005900D92A23EB107D9F710E0C5E607
:10010000D0E004C02197FE010E945715C436D107E4
:10011000C9F70E9493110C94AB160C940000FC01DB
:10012000918D228D892F90E0805C9F4F821B9109D9
:100130008F739927089580E090E0892B29F00E9421
:10014000010E81110C9400000895DC015996ED9187
:10015000FC915A973097B9F083899489A589B6891B
:100160004285538564857585841B950BA60BB70B5B
:10017000811520E89207A105B10538F08FEF9FE7C0
:10018000A0E0B0E0089580E090E00895CF93DF9381
:100190001F92CDB7DEB76983DC01ED91FC9102803F
:1001A000F381E02D41E050E0BE016F5F7F4F099584
:1001B0000F90DF91CF910895089580E090E0089529
:1001C0000E948A16FC01848DDF01A80FB11DA35A7D
:1001D000BF4F2C91848D90E001968F739927848F67
:1001E000A689B7892C93A089B1898C9180648C935E
:1001F000938D848D981306C00288F389E02D808149
:100200008F7D8083089590E0FC01E858FF4F349182
:10021000FC01EC54FF4F2491FC01E056FF4FE491A8
:10022000EE2309F43BC0332339F1333091F038F435
:100230003130A9F0323001F584B58F7D12C03730EE
:1002400091F03830A1F03430B9F4809180008F7D86
:1002500003C0809180008F77809380000DC084B5AB
:100260008F7784BD09C08091B0008F7703C08091E3
:10027000B0008F7D8093B000F0E0EE0FFF1FE457D9
:10028000FF4FA591B4918FB7F894EC91611103C021
:1002900020952E2301C02E2B2C938FBF08953FB79E
:1002A000F8948091EE019091EF01A091F001B0914E
:1002B000F10126B5A89B05C02F3F19F00196A11D9D
:1002C000B11D3FBFBA2FA92F982F8827820F911DEC
:1002D000A11DB11DBC01CD0142E0660F771F881F33
:1002E000991F4A95D1F708952FB7F8946091EA01C4
:1002F0007091EB018091EC019091ED012FBF089579
:100300001F920F920FB60F9211242F933F938F934A
:100310009F93AF93BF938091EA019091EB01A091DD
:10032000EC01B091ED013091E90123E0230F2D376D
:1003300020F40196A11DB11D05C026E8230F0296E9
:10034000A11DB11D2093E9018093EA019093EB0177
:10035000A093EC01B093ED018091EE019091EF013B
:10036000A091F001B091F1010196A11DB11D809302
:10037000EE019093EF01A093F001B093F101BF91D2
:10038000AF919F918F913F912F910F900FBE0F9042
:100390001F9018958FB7F8948091E3018FBF08954F
:1003A00061E0FC0184810E9403018091E2018111DE
:1003B0001092E20108958EBD00000DB407FEFDCF3E
:1003C0008EB508958FEF0C94DB010F931F93CF939D
:1003D000DF93EB010E9474018B010E94E2018F3FC9
:1003E00049F00E947401601B710B6C177D07A8F324
:1003F00080E001C081E0DF91CF911F910F910895BE
:10040000CF93DF93EC018E81882389F08F819885CB
:100410009C012F5F3F4F38872F838230924018F422
:100420000E94E201F3CFCE010E94D0011E82DF9133
:10043000CF9108958CBD9DBD0895CF93DF93EC01BE
:100440008091E201811109C081E08093E2018091F5
:10045000DA049091DB040E941A0260E08C81DF9143
:10046000CF910C940301CF92DF92FF920F931F93D1
:10047000CF93DF9300D000D0CDB7DEB76C01F62E5E
:1004800029833A834B835C830E940002C6010E9449
:100490001D026CE271E0C6010E94E5018F2D8064AF
:1004A0000E94DB0108E110E05C814B813A812981E7
:1004B000DA01C901002E04C0B695A79597958795D6
:1004C0000A94D2F729833A834B835C830E94DB0131
:1004D0000850110929813A814B815C81083F8FEFD7
:1004E000180731F7FF2029F0E8E0FE1204C087E882
:1004F00003C085E901C08FEF0E94DB0110E00E947C
:10050000E201F601828787FF04C01F3F11F01F5FE1
:10051000F6CF0F900F900F900F90DF91CF911F911A
:100520000F91FF90DF90CF900895AF92BF92CF923E
:10053000DF92EF92FF920F931F93CF93DF93EC0123
:100540006901C801820F931F8130924008F070C08A
:100550008E81882371F088819981AA81BB81481797
:1005600059076A077B0729F48F819885C816D90631
:10057000B0F5488359836A837B838B85833039F058
:1005800089E0440F551F661F771F8A95D1F79A019E
:10059000AB0161E1CE010E943302882319F083E0B0
:1005A0008D8346C00E9474015B010E94E2018A872C
:1005B0008F3F49F40E9474016A197B096D327140C2
:1005C000A0F38FE003C08E3F31F08DE08D83CE012C
:1005D0000E94D0012DC018861F8281E08E838F81FA
:1005E00098858C159D0540F40E94E2018F819885C5
:1005F000019698878F83F3CF6701E00EF11ECE142A
:10060000DF0431F00E94E201F60181936F01F7CF20
:100610008F819885080F191F18870F838985882374
:1006200019F00115124048F0CE010E94000205C0E9
:10063000CE010E94D00180E001C081E0DF91CF9126
:100640001F910F91FF90EF90DF90CF90BF90AF90F0
:100650000895EF92FF920F931F93CF93DF93EC01D6
:100660007901411551056105710511F482E13CC024
:100670008B85833039F089E0440F551F661F771F43
:100680008A95D1F79A01AB0168E1CE010E9433024D
:10069000882311F084E028C08EEF0E94DB018701DF
:1006A0008EEFF81AF80181918F010E94DB010E157F
:1006B0001F05C1F78FEF0E94DB018FEF0E94DB0166
:1006C0000E94E2018A878F71853031F081E18D834C
:1006D000CE010E94D00109C068E572E0CE010E94FF
:1006E000E501811107C085E18D83CE010E94D00113
:1006F00080E013C020E030E0A9016DE0CE010E944F
:100700003302811104C00E94E201882311F084E1C8
:10071000EBCFCE010E94D00181E0DF91CF911F91FC
:100720000F91FF90EF9008958091E4018823A9F143
:10073000409100015091010160910201709103010B
:1007400023EF31E08091F3039091F4030E94290399
:10075000811102C080E008954091E5015091E601C9
:100760006091E7017091E80141155105610571053E
:1007700091F023EF31E08091F3039091F4030E9414
:100780002903882339F31092E5011092E6011092B3
:10079000E7011092E8011092E40181E008958F9240
:1007A0009F92AF92BF92EF92FF920F931F93CF93BE
:1007B0004B015C01C42F8091000190910101A09137
:1007C0000201B091030188159905AA05BB0501F145
:1007D0000E949403811102C080E020C083EFE82EC4
:1007E00081E0F82E00E012E020E030E0B501A40145
:1007F0008091F3039091F4030E949502882361F3A2
:100800008092000190920101A0920201B092030136
:100810008091E401C82BC093E40181E0CF911F9146
:100820000F91FF90EF90BF90AF909F908F900895A1
:100830004F925F926F927F928F929F92AF92BF92F0
:10084000CF92DF92EF92FF920F931F93CF93DF939C
:10085000EC016A017B012801390142305105610533
:10086000710510F480E073C089859A85AB85BC85DD
:100870000196A11DB11D84179507A607B70790F330
:100880008B889C88AD88BE888F89803129F4BB27EE
:10089000AF2D9E2D8D2D09C0DB01CA0147E0B69515
:1008A000A795979587954A95D1F7880E991EAA1E08
:1008B000BB1E8091000190910101A0910201B091B5
:1008C000030188169906AA06BB0679F48F89803140
:1008D000A1F4DD24EE24FF24C601880F991FFC013A
:1008E000ED50FE4F5182408219C040E0C501B40175
:1008F0000E94CF038111EACFB5CFE894C7F8DD2479
:10090000EE24FF24C601880F991F880F991FFC0150
:10091000ED50FE4F40825182628273828091E401E9
:1009200081608093E4018A89823080F08D819E818C
:10093000AF81B885880E991EAA1EBB1E8092E50164
:100940009092E601A092E701B092E80181E0DF9188
:10095000CF911F910F91FF90EF90DF90CF90BF90BC
:10096000AF909F908F907F906F905F904F90089581
:100970008F929F92AF92BF92CF92DF92EF92FF92AF
:100980000F931F93CF93DF93FC0181859285A385FD
:10099000B4850196A11DB11D84179507A607B70759
:1009A00010F480E05CC083899489A589B689C789E1
:1009B000C03129F4852E962EA72EBB2409C04A01EA
:1009C0005B01C7E0B694A79497948794CA95D1F732
:1009D000E9016A017B018F01BC01CD01680D791D20
:1009E0008A1D9B1D8090000190900101A090020142
:1009F000B0900301681579058A059B0599F4F80103
:100A000087898031A9F4B701A60155276627772782
:100A1000440F551FFA01ED50FE4F80819181A0E0F7
:100A2000B0E018C040E00E94CF038111E8CFB9CFF9
:100A3000B701A6014F77552766277727440F551F23
:100A4000440F551FFA01ED50FE4F80819181A28124
:100A5000B381BF7088839983AA83BB8381E0DF91D0
:100A6000CF911F910F91FF90EF90DF90CF90BF90AB
:100A7000AF909F908F9008954F925F926F927F9268
:100A8000AF92BF92CF92DF92EF92FF920F931F939C
:100A9000CF93DF9300D000D0CDB7DEB78C01498370
:100AA0005A836B837C835901C12CD12C7601412C54
:100AB00082E0582E612C712C49815A816B817C8196
:100AC0009E012F5F3F4FC8010E94B804882351F157
:100AD000D301C201F801058404C0880F991FAA1F21
:100AE000BB1F0A94D2F7C80ED91EEA1EFB1E49810D
:100AF0005A816B817C818789803129F088EF9FEF53
:100B0000AFEFBFE004C088EF9FEFA0E0B0E0481770
:100B100059076A077B0780F2F501C082D182E28221
:100B2000F38281E00F900F900F900F90DF91CF91A3
:100B30001F910F91FF90EF90DF90CF90BF90AF90FB
:100B40007F906F905F904F9008958F929F92AF9299
:100B5000BF92CF92DF92EF92FF920F931F93CF93AA
:100B6000DF93EC018D81811102C080E077C00B8999
:100B70001C892D893E890417150726073707A8F316
:100B80006A017B01823029F4CA86DB86EC86FD8609
:100B90000DC0C114D104E104F10451F41E821F827E
:100BA000188619861A861B861C861D8681E056C00B
:100BB0008A849B84AC84BD84EB8DFC8D258530E0DC
:100BC000275F3F4FB501A4014150510961097109E7
:100BD000022E04C076956795579547950A94D2F7EB
:100BE000D701C6010197A109B10904C0B695A7951F
:100BF000979587952A95D2F784179507A607B70783
:100C000020F089288A288B2849F44F89588D698DCE
:100C10007A8D4E835F836887798704C0841B950B28
:100C2000A60BB70B4C015D018E010A5F1F4F8114AB
:100C30009104A104B10409F4A7CF4E815F816885B6
:100C4000798598018B8D9C8D0E94B80491E0891A5A
:100C50009108A108B1088111EACF87CFDF91CF9128
:100C60001F910F91FF90EF90DF90CF90BF90AF90CA
:100C70009F908F9008953F924F925F926F927F92D4
:100C80008F929F92AF92BF92CF92DF92EF92FF929C
:100C90000F931F93CF93DF93CDB7DEB72C970FB68B
:100CA000F894DEBF0FBECDBF5C01DC015B968D907A
:100CB0009C905C971696CD90DD90ED90FC901997E6
:100CC000C114D104E104F10439F0BFEFCB1ADB0AFF
:100CD000EB0AFB0A312C07C0F401C080D180E2800E
:100CE000F38033243394F40181859285A385B48500
:100CF0009C01AD012F5F3F4F4F4F5F4F29873A87D0
:100D00004B875C87260137011D821E821F82188651
:100D1000F40181859285A385B4852D813E814F8123
:100D20005885281739074A075B0708F063C089858B
:100D30009A85AB85BC858C159D05AE05BF0550F425
:100D400082E0C82ED12CE12CF12C92E0492E512CBE
:100D5000612C712C9E012F5F3F4FB701A601C4018A
:100D60000E94B804882309F445C089819A81AB8127
:100D7000BC81892B8A2B8B2B41F0260137019FEFF9
:100D8000491A590A690A790A05C0C414D504E60447
:100D9000F70491F02D813E814F8158852F5F3F4FA1
:100DA0004F4F5F4F2D833E834F8358873FEFC31ACA
:100DB000D30AE30AF30AACCF0FEF1FEF2FEF3FE0A8
:100DC000B301A201C4010E941804882399F0D5013F
:100DD00016964D915D916D917C9119974115510534
:100DE0006105710549F093018201C4010E94180454
:100DF000811102C080E02AC0D50116964D925D9205
:100E00006D927C921997332051F0D301C201019663
:100E1000A11DB11DF40180839183A283B383F501E9
:100E20008789908DA18DB28D892B8A2B8B2B69F4AC
:100E3000D50157964D925D926D927C925A97149679
:100E40008C911497806814968C9381E02C960FB641
:100E5000F894DEBF0FBECDBFDF91CF911F910F91F0
:100E6000FF90EF90DF90CF90BF90AF909F908F90CA
:100E70007F906F905F904F903F9008952F923F9298
:100E80004F925F926F927F928F929F92AF92BF929A
:100E9000CF92DF92EF92FF920F931F93CF93DF9346
:100EA00000D0CDB7DEB7FC018581882309F4D9C015
:100EB000848180FFD6C021E02A83438954896589D3
:100EC000768982859385A485B585481759076A0771
:100ED0007B0709F41A826F013A81832F90E0DE01CB
:100EE00011964D013F01B6E06B0E711C892B09F480
:100EF0007DC0D6011A964D915D916D917C911D97A3
:100F00005A01B1E0BB22F60125811A012B0189E0CB
:100F100056944794379427948A95D1F7838D948D6E
:100F2000223061F4FC01828D938DA48DB58DBC01BE
:100F3000CD01620D731D841D951D45C0DC01149605
:100F40001C9111501221A114B104D1F4111118C037
:100F5000452B462B472B51F4F6018789908DA18DA7
:100F6000B28D86839783A087B1870AC04681578157
:100F70006085718593010E94B804882309F471C0CB
:100F8000F601238D348D86819781A085B1850297E6
:100F9000A109B109AC01BD01F901058404C0440FE8
:100FA000551F661F771F0A94D2F786859785A089FB
:100FB000B189840F951FA61FB71FBC01CD01610F1A
:100FC000711D811D911DD60114962C9126FF14C010
:100FD0000091000110910101209102013091030163
:100FE000601771078207930751F506C0FA81FF2346
:100FF000C1F1898190E037C040E00E94CF0388238F
:1010000081F1F501ED50FE4FD401CF010196E817B3
:10101000F90719F021912D93FACFEFEF8E1A9E0A5E
:10102000F60182859385A485B5850196A11DB11D24
:1010300082879387A487B58780E090E057CF7401BB
:1010400001E010E09501AB01BC018091F3039091A8
:10105000F4030E949502882321F0BFEF8B1A9B0AAC
:10106000DFCF8FEF9FEF0F900F90DF91CF911F9108
:101070000F91FF90EF90DF90CF90BF90AF909F9037
:101080008F907F906F905F904F903F902F9008953A
:10109000FC01818D928D009711F00C943E078FEF2B
:1010A0009FEF08950F931F93CF93DF93FC01818DE2
:1010B000928D0097B9F0EF010E943E078C010F3F1F
:1010C0008FEF180791F0898D9A8DFC014285538529
:1010D0006485758541505109610971090E94A50512
:1010E000C80105C080E090E002C08FEF9FEFDF9164
:1010F000CF911F910F910895CF93DF93EC018D81D4
:101100008823A1F18C8187FF2DC06E857F8588891A
:10111000998941E00E94CF03882341F1EA8980E266
:10112000E89FF0011124DF01AD50BE4F1097F1F0A0
:101130008D81823050F44B895C896D897E895C9603
:101140004D935D936D937C935F978F89988DA98D57
:10115000BA8DED50FE4F938F828FB58BA48B8C810F
:101160008F778C83DF91CF910C94940380E0DF9193
:10117000CF9108958F929F92AF92BF92CF92DF92BC
:10118000EF92FF920F931F93CF93DF9300D000D085
:10119000CDB7DEB77C0180E2689F60011124960123
:1011A0002D503E4FD9011B969C91917121F0842FB7
:1011B000827409F097C0142FF701628B80910001AF
:1011C00090910101A0910201B09103018687978758
:1011D000A08BB18BF601ED50FE4F4489558960E03C
:1011E00070E0BA0155274427D70157964D935D9378
:1011F0006D937C935A97828D938DA0E0B0E0482B3D
:10120000592B6A2B7B2BD70157964D935D936D938A
:101210007C935A97D9011B968C91887159F4848DCF
:10122000958DA68DB78DF701838B948BA58BB68B8F
:1012300081E012C0803109F055C097012D5E3F4F0B
:10124000D7015B968D919C915C970E943C05882309
:1012500009F448C084E0F7018583812F8F70D7019E
:1012600014968C931497F7011682178210861186B4
:101270001A961D921D921D921C921D9716FF34C046
:1012800015968C91813071F511FF2CC0F7014389BF
:10129000548965897689452B462B472B09F461C013
:1012A00040E050E0BA01C7010E94A5058823D1F0B3
:1012B000F7018788908CA18CB28CC38CD48C82E08F
:1012C00090E0A0E0B0E0F60180839183A283B38335
:1012D0009E012F5F3F4FB501A401C6010E94B804D3
:1012E000811104C080E03DC081E03BC000E010E01F
:1012F0009801B501A401C6010E941804882391F346
:1013000089809A80AB80BC80D60157968C918031C1
:1013100029F088EF9FEFAFEFBFE004C088EF9FEFA9
:10132000A0E0B0E088169906AA06BB0688F2D701AD
:1013300057961D921D921D921C925A97F701138A7F
:10134000148A158A168A848180688483C7010E9462
:101350007C08882339F240E050E0BA01C7010E94BE
:10136000A5050F900F900F900F90DF91CF911F91D7
:101370000F91FF90EF90DF90CF90BF90AF909F9034
:101380008F9008954F925F926F927F92AF92BF922B
:10139000CF92DF92EF92FF920F931F93CF93DF9341
:1013A000CDB7DEB72B970FB6F894DEBF0FBECDBF1B
:1013B0007C01CE0101966C01FC0190E28BE08C0D6A
:1013C00091938E13FDCFDA0130E047E09D91992390
:1013D00039F19E3219F0E8E6F0E00AC04A3009F42B
:1013E00072C138E04AE0F2CF3196891709F46BC137
:1013F00084918111F9CF431708F465C18FED890FEE
:101400008E3508F060C181E0830FF601E30FF11D16
:101410003FE9390F3A3108F490529083382FD6CFF4
:101420008981803209F44FC1B22E8B01DB015B96BA
:101430008D919C915C97F701948F838F16961D92E6
:101440001D921D921C921997FB0112861386148619
:101450001586712CF80182859385A485B58543890D
:1014600054896589768984179507A607B70708F018
:1014700061C025E0B695A795979587952A95D1F7F0
:10148000F82FFF706F2ED80115968C91823008F4DA
:101490001AC1C8010E943E0797FD15C1F801828557
:1014A0009385A485B5854F96A11DB11D828793872D
:1014B000A487B587F0E26F9EC0011124BC016D5076
:1014C0007E4F6115710509F4FEC0DB012C912223CA
:1014D00019F0253EC1F427C071100EC0F701628AD1
:1014E000409100015091010160910201709103014E
:1014F00046875787608B718BFC01ED50FE4F8081D2
:10150000811113C015C04BE050E0C6010E948F1638
:10151000892B09F09FCF8B2D8073803309F4D3C0C2
:101520004B2D662DCCC07720C9F27724739492CFCF
:10153000772473948B2D8271823109F0C4C0772097
:10154000D1F0D7011E966D917D918D919C9151970F
:1015500041E00E94CF03882309F4B5C0F7016289F6
:10156000F0E26F9FB00111246D507E4F611571053F
:1015700009F079C0A8C0D80115968C91823009F481
:10158000A2C0C8010E943B06882309F49CC0D80170
:101590005B96ED91FC915C9716964D905D906D90E9
:1015A0007C901997B2E04B1A5108610871080584C4
:1015B00004C0440C551C661C771C0A94D2F786851F
:1015C0009785A089B189480E591E6A1E7B1EA4808A
:1015D000E1E04E1A510861087108AA2009F10E9441
:1015E0009403882309F46FC0E3EFF1E0119223E044
:1015F000E33FF207D9F7D301C2018A0D911DA11D66
:10160000B11D8093000190930101A0930201B0935A
:1016100003018091E40181608093E401AA94DDCF0D
:10162000D8015B96ED91FC915C9780E092E0A0E0A0
:10163000B0E0058404C0880F991FAA1FBB1F0A943D
:10164000D2F7F8014389548965897689840F951FFB
:10165000A61FB71F838B948BA58BB68BD701529691
:101660001C9263EF71E080E2FB0111928A95E9F729
:101670008BE0F601DB0101900D928A95E1F781E2A2
:1016800098E2DB0151969C938E93509720E038E0CE
:101690001F963C932E931E9753969C938E9352972E
:1016A00059969C938E93589757963C932E935697A2
:1016B0000E949403882339F04B2DF7016289C701FA
:1016C0000E94BA0801C080E02B960FB6F894DEBFE6
:1016D0000FBECDBFDF91CF911F910F91FF90EF9083
:1016E000DF90CF90BF90AF907F906F905F904F90C2
:1016F0000895CF93DF93EC010E947C08882311F0BA
:101700001D8281E0DF91CF910895FC01818D928D42
:10171000009711F00C947C0808952F923F924F92FD
:101720005F926F927F928F929F92AF92BF92CF9271
:10173000DF92EF92FF920F931F93CF93DF9300D02E
:1017400000D0CDB7DEB78C015B011A01DC01159624
:101750008C9115978130C9F414968C9181FF15C036
:1017600082FF1BC0F8014389548965897689828587
:101770009385A485B58584179507A607B70769F0F3
:10178000C8010E94A505811108C081E090E0F80120
:101790009383828380E090E039C1610183C0D801E6
:1017A0005B968D919C915C97FC01248121502A01CC
:1017B0003B0139E076946794579447943A95D1F772
:1017C000722E74207A01F1E0FF22772009F476C0AE
:1017D00080E092E08E199F0946018C159D0508F462
:1017E0004C01D8015B962D913C915C9716968D919A
:1017F0009D910D90BC91A02D0297A109B109F9010D
:10180000058404C0880F991FAA1FBB1F0A94D2F732
:101810004685578560897189840F951FA61FB71F5C
:101820009C01AD01270D311D411D511D29013A01BA
:10183000811432E0930609F088C0809100019091F4
:101840000101A0910201B091030184159505A6053F
:10185000B70559F48FEF9FEFDC018093000190935F
:101860000101A0930201B09303019501B301A2010C
:101870008091F3039091F4030E942903882309F4D3
:1018800084CF9EEFB91AC818D908F80182859385CC
:10189000A485B585880D991DA11DB11D82879387EB
:1018A000A487B587D8011A964D915D916D917C9171
:1018B0001D97C114D10409F072CF87C0E114F1045F
:1018C00009F086CF16964D915D916D917C91199797
:1018D000411551056105710559F457968D919D91FA
:1018E0000D90BC91A02D0097A105B10541F521C037
:1018F0009E012F5F3F4F0E94B804882309F44BCF0D
:1019000089819A81AB81BC81F801238D348DF901E5
:101910002789203129F048EF5FEF6FEF7FE004C0A7
:1019200048EF5FEF60E070E084179507A607B70700
:1019300030F0C8010E943B0681114ACF26CFF80142
:1019400086839783A087B18743CFE114F10429F5FB
:10195000D8011A964D915D916D917C911D9753968A
:101960008D919D910D90BC91A02D481759076A0744
:101970007B0798F00E949403882309F406CF4092D5
:101980000001509201016092020170920301809166
:10199000E40181608093E40108C041E0C301B20129
:1019A0000E94CF03882309F4F0CED501F701ED5052
:1019B000FE4FCF01880D991DE817F90719F02D91F9
:1019C0002193FACFA80CB91C5ECF53968D919D91AF
:1019D0000D90BC91A02D84179507A607B70740F47A
:1019E000F801438B548B658B768B8481806884836C
:1019F000D80114968C9183FD02C0C10107C0C801B3
:101A00000E947C08882309F4C0CEF7CF0F900F9076
:101A10000F900F90DF91CF911F910F91FF90EF905A
:101A2000DF90CF90BF90AF909F908F907F906F90FE
:101A30005F904F903F902F900895CF93DF931F9228
:101A4000CDB7DEB7698341E050E0BE016F5F7F4FE5
:101A50000E948D0B0F90DF91CF910895CF93DF936C
:101A6000EC01898D9A8D009739F481E090E09B8399
:101A70008A8380E090E00BC0FC01138212820E94F6
:101A80008D0BE98DFA8D22813381232B71F7DF9144
:101A9000CF910895FC01DB0112968D919C911397D3
:101AA0009383828380E291E09183808314968C916A
:101AB0001497848315968C911597858316964D916E
:101AC0005D916D917C9119974683578360877187EB
:101AD0001A964D915D916D917C911D974287538728
:101AE000648775871E964D915D916D917C9151979C
:101AF00046875787608B718B52968C915297828B59
:101B000053964D915D916D917C915697438B548B7B
:101B1000658B768B57964D915D916D917C915A971F
:101B2000478B508F618F728F5B968D919C915C97E4
:101B3000948F838F0895EF92FF920F931F93CF930B
:101B4000DF93EC017B018A011B821A8288EE93E00D
:101B5000A0E0B0E08C839D83AE83BF838CE291E0F4
:101B6000998388838DE190E00E945D159A8F898F1B
:101B7000009779F02DE1F701DC0101900D922A9593
:101B8000E1F74CE050E0B801CE010C960E949C16A3
:101B9000188EDF91CF911F910F91FF90EF900895D4
:101BA000FC01538D448D252F30E0842F90E0821B63
:101BB000930B541710F0CF96089501970895FC01E8
:101BC000918D828D981761F0828DDF01A80FB11D74
:101BD0005D968C91928D9F5F9F73928F90E0089598
:101BE0008FEF9FEF0895FC01918D828D981731F052
:101BF000828DE80FF11D858D90E008958FEF9FEFA6
:101C0000089585EF93E00E948F0021E0892B09F46D
:101C100020E0822F0895EF92FF920F931F93CF93AE
:101C2000DF93EC0181E0888F9B8D8C8D981305C02C
:101C3000E889F989808185FD24C0F62E0B8D10E09E
:101C40000F5F1F4F0F731127E02E8C8DE8120CC011
:101C50000FB607FCFACFE889F989808185FFF5CFB7
:101C6000CE010E94E200F1CF8B8DFE01E80FF11D45
:101C7000E35AFF4FF0820B8FEA89FB8980818062F3
:101C800007C0EE89FF896083E889F98980818064D3
:101C9000808381E090E0DF91CF911F910F91FF90C1
:101CA000EF900895CF93DF93EC01888D8823C9F0DE
:101CB000EA89FB89808185FD05C0A889B9898C9155
:101CC00086FD0FC00FB607FCF5CF808185FFF2CFF0
:101CD000A889B9898C9185FFEDCFCE010E94E200E1
:101CE000E7CFDF91CF9108951F920F920FB60F9219
:101CF00011242F933F934F935F936F937F938F9311
:101D00009F93AF93BF93EF93FF9385EF93E00E9470
:101D1000E200FF91EF91BF91AF919F918F917F91E1
:101D20006F915F914F913F912F910F900FBE0F9048
:101D30001F9018951F920F920FB60F9211242F9398
:101D40008F939F93EF93FF93E0910504F091060426
:101D50008081E0910B04F0910C0482FD12C090810F
:101D600080910E048F5F8F7320910F04821751F0C2
:101D7000E0910E04F0E0EB50FC4F958F80930E0441
:101D800001C08081FF91EF919F918F912F910F90D2
:101D90000FBE0F901F901895CF92DF92EF92FF9297
:101DA0000F931F93CF93DF936C017A018B01C0E0F7
:101DB000D0E0CE15DF0589F0D8016D918D01D601F7
:101DC000ED91FC910190F081E02DC6010995892BE0
:101DD00011F47E0102C02196ECCFC701DF91CF91B3
:101DE0001F910F91FF90EF90DF90CF900895E5EF56
:101DF000F3E0A089B18982E08C93A485B5851C921B
:101E0000A685B7858FEC8C93108EA489B58986E062
:101E10008C93A289B3898C9180618C93A289B389B8
:101E20008C9188608C93A289B3898C9180688C9303
:101E30000288F389E02D80818F7D808308950F9340
:101E40001F93CF93DF93CDB7DEB7C755D1090FB638
:101E5000F894DEBF0FBECDBF8C0166E075E0CE0109
:101E600001960E944A0DBE016F5F7F4FCE01CB9657
:101E70000E944A0D19A218A280E291E09F8F8E8FD6
:101E80001BA221968FAD2197811113C0F8011382F7
:101E9000128288EE93E0A0E0B0E084839583A6836D
:101EA000B7838CE291E091838083128E118E148629
:101EB00033C0825023E147ED51E0823048F466E0C0
:101EC00075E0CE014E960E94C20981110EC0DECF90
:101ED000BE01655C7F4FCE014E960E94C2098823E9
:101EE000A9F2CE01CB960E94790B49A95AA96BA9F8
:101EF0007CA9CE014E960E94A505BE01625E7F4F71
:101F0000CE0101960E944A0D47ED51E0BE016F5F80
:101F10007F4FC8010E949B0DC801C95ADF4F0FB601
:101F2000F894DEBF0FBECDBFDF91CF911F910F910F
:101F300008958F929F92AF92BF92CF92DF92EF92CD
:101F4000FF92CF93DF93C82F8CED94E09093F4032E
:101F50008093F303CC2369F1C53010F080E00DC10C
:101F600040E060E070E0CB010E94CF038823B1F332
:101F700020E1C29FC00111248D519E4FFC01E2540B
:101F8000FE4F20812F7751F73C964081518162812D
:101F90007381443651056105710500F33497C080A3
:101FA000D180E280F380C114D104E104F10421F472
:101FB000D5CFC12CD12C760140E0C701B6010E94DB
:101FC000CF03882359F28091FE019091FF01811582
:101FD000924021F6A0910302AA2309F4BFCF609199
:101FE0000102709102026115710509F4B7CF2091C9
:101FF0000002222309F4B2CFA093FA042093EC0448
:1020000080E030E0E1E0F0E0C82FAF01082E02C030
:10201000440F551F0A94E2F72417350741F0982F13
:102020008F5F983089F789E08093F50497CF80938C
:10203000F5042091090230910A022115310519F0A9
:1020400040E050E008C02091170230911802409102
:10205000190250911A022093ED043093EE0440933C
:10206000EF045093F00446015701860E971EA11C01
:10207000B11C8092FB049092FC04A092FD04B092EB
:10208000FE04E0910402F0910502F0930105E09353
:102090000005B0E00E943D15860E971EA81EB91ED1
:1020A0008092020590920305A0920405B092050566
:1020B00085E0EE0FFF1F8A95E1F7E150FE4FEF2F0D
:1020C000FF27E6958E0E9F1EA11CB11C8092F60480
:1020D0009092F704A092F804B092F90420910602BD
:1020E000309107022115310521F0A90160E070E06F
:1020F00008C0409113025091140260911502709132
:102100001602D701C60188199909AA09BB09840FCB
:10211000951FA61FB71F04C0B695A79597958795DD
:10212000CA95D2F78093F1049093F204A093F3043C
:10213000B093F404853F2FE09207A105B10510F498
:102140008CE018C0853F9F4FA105B10510F480E1D8
:1021500011C080911F0290912002A0912102B091A4
:1021600022028093020590930305A0930405B09387
:10217000050580E28093FF0481E0DF91CF91FF901D
:10218000EF90DF90CF90BF90AF909F908F90089589
:1021900090E0FC01EC54FF4F2491FC01E056FF4F0E
:1021A0008491882399F090E0880F991FFC01EA56EA
:1021B000FF4FA591B491FC01E457FF4F8591949195
:1021C0008FB7F894EC91E22BEC938FBF08956115D3
:1021D000710579F0FB0101900020E9F73197AF011B
:1021E000461B570BDC01ED91FC910280F381E02D41
:1021F000099480E090E00895CF93DF93BC0185EFD0
:1022000093E00E94E710EC0167E671E085EF93E050
:102210000E94E7108C0F9D1FDF91CF9108954F9280
:102220005F926F927F92EF92FF920F931F93CF93E3
:10223000DF93CDB7DEB7A1970FB6F894DEBF0FBE20
:10224000CDBF7C01FA01CB0119A2223008F42AE0AB
:102250008E010F5D1F4F422E512C612C712CBF013E
:10226000A30192010E941B15F901CA010150110935
:102270006A3014F4605D01C0695CD8016C93232B53
:10228000242B252B61F7B801C7010E94E710A19606
:102290000FB6F894DEBF0FBECDBFDF91CF911F9177
:1022A0000F91FF90EF907F906F905F904F90089507
:1022B000CF92DF92EF92FF920F931F93CF93DF9312
:1022C000EC016B01770FEE08FF08F7FE16C0E881FE
:1022D000F9810190F081E02D6DE209958C01442790
:1022E0005527BA014C195D096E097F092AE0CE0114
:1022F0000E940F11080F191F06C02AE0B701A6019E
:102300000E940F118C0167E671E0CE010E94E71078
:10231000800F911FDF91CF911F910F91FF90EF9050
:10232000DF90CF900895CF93DF93CDB7DEB76B9753
:102330000FB6F894DEBF0FBECDBF789484B582602F
:1023400084BD84B5816084BD85B5826085BD85B559
:10235000816085BD80916E00816080936E001092D7
:102360008100809181008260809381008091810052
:1023700081608093810080918000816080938000E3
:102380008091B10084608093B1008091B000816041
:102390008093B00080917A00846080937A0080916D
:1023A0007A00826080937A0080917A0081608093C5
:1023B0007A0080917A00806880937A001092C10040
:1023C0001092D6041092D7041092D8041092D90417
:1023D000109294041092950410929604109297040F
:1023E0000E9474016B017C014B015C0128EB820EA1
:1023F0002BE0921EA11CB11C0E9474016C157D057E
:102400008E059F0528F086169706A806B906A0F740
:1024100085EF93E09093D5048093D4040E94F70E47
:1024200068E571E08091D4049091D5040E94E71092
:102430000E9474016B017C014B015C018AE0880EF3
:10244000911CA11CB11C0E9474016C157D058E05A8
:102450009F0528F086169706A806B906A0F781E022
:102460008093A8040E94F70E6AE671E085EF93E07E
:102470000E94E7101092E7041092E5041092E20423
:102480001092E10484E08093E0040E9474018B01C7
:102490008091E0040E94C81061E08091E0040E94F5
:1024A0000301FFB6F8948091F201811124C0EAEA99
:1024B000F0E08491EEEBF0E09491E82FF0E0EE0F85
:1024C000FF1FEA56FF4FA591B491EC91E92321F447
:1024D00061E08AE00E9403018AE00E94C8108CB586
:1024E00080618CBD8CB580648CBD8DE00E94C8106D
:1024F0008BE00E94C8108091F2018F5F8093F201FF
:10250000FFBE82E58093DA041092DB048091DA0446
:102510009091DB040E941A026AE0F62E8FEF0E946F
:10252000DB01FA94F110FACF8CED94E00E941D02C9
:1025300020E030E0A90160E08CED94E00E943302DD
:10254000F82E8093E60481E0F81649F00E947401A9
:10255000601B710B613D774058F381E056C02AEA59
:1025600031E040E050E068E08CED94E00E943302FE
:1025700082FF03C0F092E70410C054E0F52E0E94E1
:10258000E2018093E604FA94F110F9CF8A3A11F04F
:1025900082E03BC082E08093E7048091E7048230D0
:1025A00021F0C12CD12C760105C0C12CD12CE12CFD
:1025B00040E4F42E20E030E0A90167E38CED94E0E4
:1025C0000E943302A701960169E28CED94E00E941B
:1025D00033028093E604882349F00E947401601B53
:1025E000710B613D774030F388E00FC08091E704C4
:1025F000823001F520E030E0A9016AE38CED94E03F
:102600000E943302882341F086E08093E1048CED40
:1026100094E00E94D001C7C00E94E201807C803C0F
:1026200019F483E08093E7040E94E2010E94E20132
:102630000E94E2018CED94E00E94D00180E580933D
:10264000DA041092DB0481E00E94990F882329F0BC
:1026500080910B05882341F0A6C080E00E94990F6D
:10266000882309F4A0C0F4CF8091FF04803109F5DC
:1026700082E080930B0510921D0510921E051092AA
:102680001F05109220058091000590910105A0E0A2
:10269000B0E035E0880F991FAA1FBB1F3A95D1F70C
:1026A0008093190590931A05A0931B05B0931C0500
:1026B0001FC0803209F077C083E080930B05409102
:1026C0000205509103056091040570910505409342
:1026D0001D0550931E0560931F057093200529E189
:1026E00035E088EE94E00E943C05882309F45BC045
:1026F00088EE94E0909322058093210581E08093F9
:102700000A0510920C0510920D0510920E051092FC
:102710000F051092100510921105109212051092DB
:1027200013051092140510921505109216051092BB
:1027300017051092180582E891E00E94FC10CE0166
:1027400001960E941F0F8B819C8190932805809396
:1027500027058D819E81AF81B8858093290590934F
:102760002A05A0932B05B0932C0589859A85AB8506
:10277000BC8580932D0590932E05A0932F05B093D3
:1027800030058DE0FE013D96A1E3B5E001900D928C
:102790008A95E1F7EA8DFB8DF0933F05E0933E05C6
:1027A000309731F415C087E991E00E94FC10FFCF0B
:1027B0008581882369F06EEA71E085E295E00E94E8
:1027C000E71067E671E085E295E00E94E71004C03B
:1027D0008FEB91E00E94FC1080913E0590913F05A7
:1027E000009761F00E94790B80913E0590913F0522
:1027F0000E94F21510923F0510923E0590E4792E4A
:102800002DE0622E70927C0080917A00806480932B
:102810007A0080917A0086FDFCCF00917800F090DC
:102820007900CE0101960E941F0F8B819C819093AD
:102830002805809327058D819E81AF81B88580937F
:10284000290590932A05A0932B05B0932C05898523
:102850009A85AB85BC8580932D0590932E05A0931A
:102860002F05B0933005FE013D96A1E3B5E0862D1E
:1028700001900D928A95E1F7EA8DFB8DF0933F056B
:10288000E0933E05309771F18581882359F110E07E
:102890001F290E947401AB01BC012AE085E295E08A
:1028A0000E940F1165ED71E085E295E00E94E7104E
:1028B000B80185E295E00E9458110E947401AB01B5
:1028C000BC012AE085EF93E00E940F1165ED71E0F5
:1028D00085EF93E00E94E710B80185EF93E00E9436
:1028E000581104C08FEB91E00E94FC1080913E05CE
:1028F00090913F05009761F00E94790B80913E0511
:1029000090913F050E94F21510923F0510923E05EE
:102910000E944F014B015C0188EEC82E83E0D82E47
:10292000E12CF12C0E944F01DC01CB01881999099F
:10293000AA09BB09883E9340A105B10558F081E082
:10294000C81AD108E108F10828EE820E23E0921E91
:10295000A11CB11CC114D104E104F10419F70E94B7
:102960009B0050CFE5EFF3E01382128288EE93E0F4
:10297000A0E0B0E084839583A683B7832EE031E0A6
:102980003183208325EC30E03587248724EC30E048
:102990003787268720EC30E0318B208B21EC30E02C
:1029A000338B228B22EC30E0358B248B26EC30E00D
:1029B000378B268B118E128E138E148EE2E9F4E083
:1029C0001682178210861186128613861486158643
:1029D00016861786108A118A128A138A148A158A13
:1029E000EAEDF4E020E520831182ECEDF4E01582BD
:1029F00016821186138642E050E060E070E0448762
:102A000055876687778713A215A614A620E231E0C2
:102A100033A722A717A6E5E2F5E01382128284838A
:102A20009583A683B7838CE291E091838083128E95
:102A3000118E14860895A1E21A2EAA1BBB1BFD015C
:102A40000DC0AA1FBB1FEE1FFF1FA217B307E4078D
:102A5000F50720F0A21BB30BE40BF50B661F771FE5
:102A6000881F991F1A9469F76095709580959095C5
:102A70009B01AC01BD01CF0108950E944815A59F9F
:102A8000900DB49F900DA49F800D911D1124089569
:102A9000A29FB001B39FC001A39F700D811D11249F
:102AA000911DB29F700D811D1124911D0895EE0F8F
:102AB000FF1F0590F491E02D0994CF93DF938230AE
:102AC000910510F482E090E0E0914205F091430519
:102AD00020E030E0C0E0D0E0309711F1408151813A
:102AE00048175907C0F04817590761F4828193814C
:102AF000209719F09B838A832BC090934305809382
:102B0000420526C02115310519F04217530718F464
:102B10009A01BE01DF01EF010280F381E02DDCCFDD
:102B20002115310509F1281B390B2430310590F4AA
:102B300012968D919C9113976115710521F0FB01FF
:102B40009383828304C09093430580934205FD01E3
:102B5000329644C0FD01E20FF31F819391932250FE
:102B600031092D933C933AC02091400530914105A5
:102B7000232B41F420910601309107013093410548
:102B80002093400520910401309105012115310564
:102B900041F42DB73EB74091080150910901241B23
:102BA000350BE0914005F0914105E217F307A0F4E1
:102BB0002E1B3F0B2817390778F0AC014E5F5F4F93
:102BC0002417350748F04E0F5F1F5093410540937F
:102BD00040058193919302C0E0E0F0E0CF01DF91E6
:102BE000CF9108950F931F93CF93DF93009709F42C
:102BF0008CC0FC0132971382128200914205109121
:102C000043050115110581F420813181820F931F45
:102C100020914005309141052817390779F5F09347
:102C20004105E093400571C0D80140E050E0AE1787
:102C3000BF0750F412962D913C911397AD012115C9
:102C4000310509F1D901F3CF9D01DA0133832283E4
:102C500060817181860F971F8217930769F4EC01D9
:102C600028813981260F371F2E5F3F4F3183208304
:102C70008A819B8193838283452B29F4F0934305BA
:102C8000E093420542C01396FC93EE931297ED0138
:102C9000499159919E01240F351FE217F30771F4F2
:102CA00080819181840F951F029611969C938E933B
:102CB0008281938113969C938E931297E0E0F0E0CB
:102CC000D80112968D919C911397009719F0F801F5
:102CD0008C01F6CF8D919C9198012E5F3F4F820F12
:102CE000931F20914005309141052817390769F459
:102CF000309729F4109243051092420502C01382C6
:102D000012821093410500934005DF91CF911F91EE
:102D10000F91089581E090E0F8940C94AB16FB01BC
:102D2000DC0104C08D910190801921F44150504084
:102D3000C8F7881B990B0895FB01DC0141505040F6
:102D400048F001900D920020C9F701C01D9241503A
:0A2D50005040E0F70895F894FFCF1B
:102D5A00FFFFFFFF000044058000000000000B0E8B
:102D6A00CC0ED00D520E8F00DF0DF30D00000000C7
:102D7A001D0DCC0EDD00DC0000000000C6002E0D8B
:102D8A00DD00850BA5004808520800000000E0009D
:102D9A00CC0EDD00DC00E000E000E00000000000F6
:102DAA00E000CC0EDD00DC00564D4450565F317C0D
:102DBA00315F564D4450560D0A00496E6974696177
:102DCA006C697A696E6720534420636172642E2E9F
:102DDA002E00696E697469616C697A6174696F6ED3
:102DEA0020646F6E652E00696E697469616C697A18
:102DFA006174696F6E206661696C6564210054694B
:102E0A006D65094D6561737572656D656E74004512
:102E1A0052524F523A2046696C65206E6F74206692
:102E2A006F756E640009004261636B75702E747869
:022E3A00740022
:00000001FF
